0246727976242172017010100516+48794-122537FM-16+0046KBLI V0201405N00935004885MN0064375N5+00205+00005999999ADDAU110030015AU200001015AW1105AW2715GA1075+004885999GA2085+007015999GD13991+0048859GD24991+0070159MA1100855100305OC101185REMMET11512/31/16 16:51:03 SPECI KBLI 010051Z 14018G23KT 4SM -SN BR BKN016 OVC023 02/00 A2978 RMK AO2 PRESFR P0001 FIBI (JC)
0262727976242172017010100536+48794-122537FM-15+0046KBLI V0201405N00935004885MN0064375N5+00175+00005100925ADDAA101000395AU110030015AU200001015AW1105AW2715GA1075+004885999GA2085+007015999GD13991+0048859GD24991+0070159MA1100855100305OC101185REMMET12012/31/16 16:53:03 METAR KBLI 010053Z 14018G23KT 4SM -SN BR BKN016 OVC023 02/00 A2978 RMK AO2 SLP092 P0001 T00170000 (JC)
0213727976242172017010101516+48794-122537FM-16+0046KBLI V0201505N00575003965MN0160935N5+00205+00105999999ADDAU110030015AW1715GA1085+003965999GD14991+0039659MA1100715100165OC100935REMMET13012/31/16 17:51:03 SPECI KBLI 010151Z 15011G18KT 10SM -SN OVC013 02/01 A2974 RMK AO2 UPB02E12B38E47RAB47E48SNE02B48 P0000 FIBI (JC)
0225727976242172017010101536+48794-122537FM-15+0046KBLI V0201505N00515003965MN0160935N5+00225+00065100795ADDAA101000025AU110030015AW1715GA1085+003965999GD14991+0039659MA1100715100165REMMET13912/31/16 17:53:03 METAR KBLI 010153Z 15010KT 10SM -SN OVC013 02/01 A2974 RMK AO2 UPB02E12B38E47RAB47E48SNE02B48 SLP079 P0000 T00220006 (JC)
0166727976242172017010102516+48794-122537FM-16+0046KBLI V0201405N00625004885MN0144845N5+00305+00105999999ADDGA1085+004885999GD14991+0048859MA1100585100035OC100985REMMET10012/31/16 18:51:03 SPECI KBLI 010251Z 14012G19KT 9SM OVC016 03/01 A2970 RMK AO2 SNE51 P0000 FIBI (JC)
0226727976242172017010102536+48794-122537FM-15+0046KBLI V0201405N00625004885MN0144845N5+00285+00115100665ADDAA101000025AA203000391GA1085+004885999GD14991+0048859MA1100585100035MD1690439+9999OC100985REMMET12412/31/16 18:53:03 METAR KBLI 010253Z 14012G19KT 9SM OVC016 03/01 A2970 RMK AO2 SNE51 SLP066 P0000 60001 T00280011 56043 (JC)
0194727976242172017010103236+48794-122537FM-16+0046KBLI V0201905V00365003965MN0128755N5+00285+00175999999ADDAU110020015AW1615GA1085+003965999GD14991+0039659MA1100545099995OC100775REMMET11112/31/16 19:23:03 SPECI KBLI 010323Z 19007G15KT 8SM -RA OVC013 03/02 A2969 RMK AO2 RAB0255 P0002 T00280017 (JC)
0250727976242172017010103536+48794-122537FM-15+0046KBLI V0201805N00515003355MN0128755N5+00285+00175100615ADDAA101001895AU110020015AW1615GA1075+003355999GA2085+005185999GD13991+0033559GD24991+0051859MA1100515099965OC100985REMMET12512/31/16 19:53:03 METAR KBLI 010353Z 18010G19KT 8SM -RA BKN011 OVC017 03/02 A2968 RMK AO2 RAB0255 SLP061 P0007 T00280017 (JC)
0188727976242172017010104216+48794-122537FM-16+0046KBLI V0209999V00215002445MN0160935N5+00285+00225999999ADDAU110020015AW1615GA1085+002445999GD14991+0024459MA1100475099935REMMET11312/31/16 20:21:03 SPECI KBLI 010421Z VRB04KT 10SM -RA OVC008 03/02 A2967 RMK AO2 CIG 005V012 P0001 T00280022 (JC)
0205727976242172017010104516+48794-122537FM-16+0046KBLI V0202905N00515001225MN0128755N5+00205+00105999999ADDGA1075+001225999GA2085+003355999GD13991+0012259GD24991+0033559MA1100475099935REMMET11612/31/16 20:51:03 SPECI KBLI 010451Z 29010KT 8SM BKN004 OVC011 02/01 A2967 RMK AO2 RAE32 CIG 002V007 P0001 FIBI (JC)
0228727976242172017010104536+48794-122537FM-15+0046KBLI V0202905N00515001225MN0112655N5+00175+00115100575ADDAA101000395GA1075+001225999GA2085+003355999GD13991+0012259GD24991+0033559MA1100475099935REMMET12812/31/16 20:53:03 METAR KBLI 010453Z 29010KT 7SM BKN004 OVC011 02/01 A2967 RMK AO2 RAE32 CIG 002V007 SLP057 P0001 T00170011 (JC)
0149727976242172017010105446+48794-122537FM-16+0046KBLI V0202905N00315001525MN0160935N5+00115+00065999999ADDGA1085+001525999GD14991+0015259MA1100585100035REMMET09112/31/16 21:44:03 SPECI KBLI 010544Z 29006KT 10SM OVC005 01/01 A2970 RMK AO2 T00110006 (JC)
0286727976242172017010105536+48794-122537FM-15+0046KBLI V0203005N00315001835MN0112655N5+00115+00115100675ADDAA101000025AA206002391AU110030015AW1715GA1075+001835999GA2085+003355999GD13991+0018359GD24991+0033559MA1100585100035MD1390019+9999REMMET14412/31/16 21:53:03 METAR KBLI 010553Z 30006KT 7SM -SN BKN006 OVC011 01/01 A2970 RMK AO2 SNB53 SLP067 P0000 60009 T00110011 10033 20011 53001 (JC)
0241727976242172017010106406+48794-122537FM-16+0046KBLI V0200205N00155001525MN0028165N5+00115+00065999999ADDAU110030015AU200001015AW1105AW2715GA1075+001525999GA2085+003055999GD13991+0015259GD24991+0030559MA1100615100065REMMET11812/31/16 22:40:03 SPECI KBLI 010640Z 02003KT 1 3/4SM -SN BR BKN005 OVC010 01/01 A2971 RMK AO2 SNE11B31 P0000 T00110006
0265727976242172017010106516+48794-122537FM-16+0046KBLI V0209999C00005001525MN0048285N5+00105+00105999999ADDAU110030015AU200001015AW1105AW2715GA1075+001525999GA2075+007925999GA3085+013725999GD13991+0015259GD23991+0079259GD34991+0137259MA1100615100065REMMET11112/31/16 22:51:03 SPECI KBLI 010651Z 00000KT 3SM -SN BR BKN005 BKN026 OVC045 01/01 A2971 RMK AO2 SNE11B31 P0000
0293727976242172017010106536+48794-122537FM-15+0046KBLI V0200805N00155007925MN0096565N5+00065+00065100695ADDAA101000025AU110030015AU200001015AW1105AW2715GA1045+001525999GA2075+007925999GA3085+013725999GD12991+0015259GD23991+0079259GD34991+0137259MA1100615100065REMMET12812/31/16 22:53:03 METAR KBLI 010653Z 08003KT 6SM -SN BR SCT005 BKN026 OVC045 01/01 A2971 RMK AO2 SNE11B31 SLP069 P0000 T00060006
0233727976242172017010107076+48794-122537FM-16+0046KBLI V0200805N00155014025MN0128755N5+00065+00065999999ADDGA1025+007015999GA2075+014025999GA3085+024385999GD11991+0070159GD23991+0140259GD34991+0243859MA1100585100035REMMET11312/31/16 23:07:03 SPECI KBLI 010707Z 08003KT 8SM FEW023 BKN046 OVC080 01/01 A2970 RMK AO2 SNE0654 P0000 T00060006
0281727976242172017010107266+48794-122537FM-16+0046KBLI V0209999C00005005495MN0040235N5+00065+00065999999ADDAU110030015AU200001015AW1105AW2715GA1075+005495999GA2075+021345999GA3085+025915999GD13991+0054959GD23991+0213459GD34991+0259159MA1100585100035REMMET12712/31/16 23:26:03 SPECI KBLI 010726Z 00000KT 2 1/2SM -SN BR BKN018 BKN070 OVC085 01/01 A2970 RMK AO2 SNE0654B22 P0001 T00060006
0243727976242172017010107356+48794-122537FM-16+0046KBLI V0201605N00155004885MN0024145N5+00065+00065999999ADDAU110030015AU200001015AW1105AW2715GA1075+004885999GA2085+022865999GD13991+0048859GD24991+0228659MA1100585100035REMMET12012/31/16 23:35:03 SPECI KBLI 010735Z 16003KT 1 1/2SM -SN BR BKN016 OVC075 01/01 A2970 RMK AO2 SNE0654B22 P0001 T00060006
0281727976242172017010107426+48794-122537FM-16+0046KBLI V0209999C00005004885MN0028165N5+00065+00065999999ADDAU110030015AU200001015AW1105AW2715GA1045+001835999GA2075+004885999GA3085+006405999GD12991+0018359GD23991+0048859GD34991+0064059MA1100615100065REMMET12712/31/16 23:42:03 SPECI KBLI 010742Z 00000KT 1 3/4SM -SN BR SCT006 BKN016 OVC021 01/01 A2971 RMK AO2 SNE0654B22 P0001 T00060006
0238727976242172017010107516+48794-122537FM-16+0046KBLI V0209999C00005001835MN0024145N5+00105+00105999999ADDAU110030015AU200001015AW1105AW2715GA1075+001835999GA2085+004275999GD13991+0018359GD24991+0042759MA1100615100065REMMET11512/31/16 23:51:03 SPECI KBLI 010751Z 00000KT 1 1/2SM -SN BR BKN006 OVC014 01/01 A2971 RMK AO2 SNE0654B22 P0002 FIBI
0271727976242172017010107536+48794-122537FM-15+0046KBLI V0209999C00005001835MN0028165N5+00065+00065100685ADDAA101000595AU110030015AU200001015AW1105AW2715GA1075+001835999GA2085+004275999GD13991+0018359GD24991+0042759MA1100615100065REMMET13712/31/16 23:53:03 METAR KBLI 010753Z 00000KT 1 3/4SM -SN BR BKN006 OVC014 01/01 A2971 RMK AO2 SNE0654B22 SLP068 P0002 T00060006 400330006
0839727976242172017010107596+48794-122537SOD  +0046KBLI V020999999999999999999999999999+99999+99999999999ADDAA124003695AX1015245KA1240M+00335KA2240N+00065MG1100904100544OE11240120714099995OE22240098314099995OE33240039399999995REMSOD70924 HR PRECIPITATION (IN): 0.14 WEATHER(CODE):1  24 HR MAX TEMP (F): 3824 HR MIN TEMP (F): 33AVERAGE STATION PRESSURE:29.795 MINIMUM SEA LEVEL PRESSURE:29.69 TIME OF OCCURRENCE:2045 PEAK WIND SPEED (MPH): 27 PEAK WIND DIR (DEG):140 PEAK WIND TIME (LST):      FASTEST 2MIN SPEED (MPH): 22FASTEST 2MIN DIR (DEG):140 FASTEST 2MIN TIME (LST):     AVERAGE WIND SPEED (MPH): 8.8 24 HR AVG TEMP (F): 36DEPART FROM NORMAL: -2  HEATING DEGREE DAYS: 29 COOLING DEGREE DAYS:  0 LATEST DAY MAX TEMP (0700-1900 LST):38  LATEST NIGHT MIN TEMP(1900-0800 LST):34 HOURLY INCREMENTAL PRECIPITATION VALUES (IN):    T    0.00 0.00 0.00 0.00 0.00 0.00 0.00 0.00 T    T    0.01 0.01 T    0.01 0.01 T    T    0.07 0.01 T    T    0.02
1294727976242172017010107596+48794-122537SOM  +0046KBLI V020999999999999999999999999999+99999+99999999999ADDAB10093096AD10023492223999999996AE1156106025005AH1005000893003085AH2010001590404595AH3015001890405045AH4020002091015125AH5030002891015195AH6045003691015295AI1060004191015435AI2080004691015525AI3100005190318015AI4120005890318245AI5150006990318245AI6180007690318245KB1744N-01445KB2744M+03835KB3744A+01225KC1N9-01001799995KC2M9+00942002995KD1744H09505KD2744C00005KE1085005225005MH1101394102074MK1103561802485100142309025REMSOM798PCP MTOT:3.66 PCP GT 24HRS:0.92 DATE(S):22-23 DAYS W/PCP >=.01:15 DAYS W/PCP >=.10:10 DAYS W/ PCP >=.50:2 DAYS W/PCP >=1.00:0 MSDP AMTS W/DATE-TIME TAGS:MIN:5 0.03  30/0308 MIN:10 0.06  04/0459 MIN:15 0.07  04/0504 MIN:20 0.08  10/1512 MIN:30 0.11  10/1519 MIN:45 0.14  10/1529 MIN:60 0.16  10/1543 MIN:80 0.18  10/1552 MIN:100 0.20  03/1801 MIN:120 0.23  03/1824 MIN:150 0.27  03/1824 MIN:180 0.30  03/1824 AVG DLY MIN:29.4  AVG DLY MAX:38.9  AVG MLY TMP:34.2  MIN TMP:14 DATE(S):17 MAX TMP:49  DATE(S):20 02 DAYS MAX <=32:8 DAYS MAX >=90:0  DAYS MIN <=32:22 DAYS MIN  <=0:0  AVG STP:29.940 LWST SLP:29.57 DATE/TIME:230902 HGST SLP:30.58 DATE/TIME:180248 HDD MTH TOT:950 DEP NORM:-2553 SEASON(JUL 1-JUN 30):2030 DEP NORM:-25536 CDD MTH TOT:0 DEP NORM:-2553 SEASON(JAN 1-DEC 31):101 DEP NORM:-25536EQDR01  3.667ABP071R02  0.927ADP081R03    157AE1100R04    2 7AE2103
0190727976242172017010108076+48794-122537FM-16+0046KBLI V0201205N00215001525MN0048285N5+00065+00005999999ADDAU110030015AU200001015AW1105AW2715GA1085+001525999GD14991+0015259MA1100585100035REMMET09801/01/17 00:07:02 SPECI KBLI 010807Z 12004KT 3SM -SN BR OVC005 01/00 A2970 RMK AO2 P0001 T00060000
0251727976242172017010108446+48794-122537FM-16+0046KBLI V0209999C00005018295MN0096565N5+00065+00065999999ADDAU100001015AW1105GA1045+001525999GA2075+018295999GA3085+021345999GD12991+0015259GD23991+0182959GD34991+0213459MA1100585100035REMMET11401/01/17 00:44:02 SPECI KBLI 010844Z 00000KT 6SM BR SCT005 BKN060 OVC070 01/01 A2970 RMK AO2 SNE37 P0002 T00060006
0306727976242172017010108536+48794-122537FM-15+0046KBLI V0209999C00005010365MN0080475N5+00065+00065100655ADDAA101000595AA203001091AU100001015AW1105GA1045+002745999GA2075+010365999GA3085+021345999GD12991+0027459GD23991+0103659GD34991+0213459MA1100585100035MD1890029+9999REMMET13301/01/17 00:53:02 METAR KBLI 010853Z 00000KT 5SM BR SCT009 BKN034 OVC070 01/01 A2970 RMK AO2 SNE37 SLP065 P0002 60004 T00060006 58002
0274727976242172017010109066+48794-122537FM-16+0046KBLI V0201605N00155003355MN0048285N5+00065+00005999999ADDAU110030015AU200001015AW1105AW2715GA1025+000915999GA2075+003355999GA3085+012805999GD11991+0009159GD23991+0033559GD34991+0128059MA1100585100035REMMET12001/01/17 01:06:02 SPECI KBLI 010906Z 16003KT 3SM -SN BR FEW003 BKN011 OVC042 01/00 A2970 RMK AO2 SNB0857 P0000 T00060000
0278727976242172017010109136+48794-122537FM-16+0046KBLI V0209999C00005003355MN0028165N5+00065+00005999999ADDAU110030015AU200001015AW1105AW2715GA1045+000915999GA2075+003355999GA3085+009455999GD12991+0009159GD23991+0033559GD34991+0094559MA1100585100035REMMET12401/01/17 01:13:02 SPECI KBLI 010913Z 00000KT 1 3/4SM -SN BR SCT003 BKN011 OVC031 01/00 A2970 RMK AO2 SNB0857 P0000 T00060000
0278727976242172017010109376+48794-122537FM-16+0046KBLI V0209999C00005002745MN0024145N5+00065+00065999999ADDAU110030015AU200001015AW1105AW2715GA1025+000915999GA2075+002745999GA3085+005495999GD11991+0009159GD23991+0027459GD34991+0054959MA1100585100035REMMET12401/01/17 01:37:02 SPECI KBLI 010937Z 00000KT 1 1/2SM -SN BR FEW003 BKN009 OVC018 01/01 A2970 RMK AO2 SNB0857 P0001 T00060006
0273727976242172017010109516+48794-122537FM-16+0046KBLI V0209999C00005003055MN0028165N5+00105+00105999999ADDAU110030015AU200001015AW1105AW2715GA1075+003055999GA2075+004885999GA3085+007015999GD13991+0030559GD23991+0048859GD34991+0070159MA1100585100035REMMET11901/01/17 01:51:02 SPECI KBLI 010951Z 00000KT 1 3/4SM -SN BR BKN010 BKN016 OVC023 01/01 A2970 RMK AO2 SNB0857 P0002 FIBI
0296727976242172017010109536+48794-122537FM-15+0046KBLI V0209999C00005003055MN0024145N5+00065+00065100675ADDAA101000595AU110030015AU200001015AW1105AW2715GA1075+003055999GA2075+004575999GA3085+006405999GD13991+0030559GD23991+0045759GD34991+0064059MA1100585100035REMMET13101/01/17 01:53:02 METAR KBLI 010953Z 00000KT 1 1/2SM -SN BR BKN010 BKN015 OVC021 01/01 A2970 RMK AO2 SNB0857 SLP067 P0002 T00060006
0270727976242172017010110006+48794-122537FM-16+0046KBLI V0209999C00005006405MN0020125N5+00065+00065999999ADDAU110030015AU200001015AW1105AW2715GA1045+003055999GA2045+004575999GA3085+006405999GD12991+0030559GD22991+0045759GD34991+0064059MA1100585100035REMMET11601/01/17 02:00:02 SPECI KBLI 011000Z 00000KT 1 1/4SM -SN BR SCT010 SCT015 OVC021 01/01 A2970 RMK AO2 P0000 T00060006
0270727976242172017010110116+48794-122537FM-16+0046KBLI V0209999C00005006405MN0020125N5+00065+00065999999ADDAU110030015AU200001015AW1105AW2715GA1025+001835999GA2025+004275999GA3085+006405999GD11991+0018359GD21991+0042759GD34991+0064059MA1100615100065REMMET11601/01/17 02:11:02 SPECI KBLI 011011Z 00000KT 1 1/4SM -SN BR FEW006 FEW014 OVC021 01/01 A2971 RMK AO2 P0000 T00060006
0256727976242172017010110236+48794-122537FM-16+0046KBLI V0203605N00155000915MN0016095N5+00065+00005999999ADDAU110030015AU200001015AW1105AW2715ED116U16769GA1075+000915999GA2085+005795999GD13991+0009159GD24991+0057959MA1100615100065REMMET12201/01/17 02:23:02 SPECI KBLI 011023Z 36003KT 1SM R16/5500VP6000FT -SN BR BKN003 OVC019 01/00 A2971 RMK AO2 P0000 T00060000
0232727976242172017010110346+48794-122537FM-16+0046KBLI V0209999C00005001525MN0024145N5+00065+00065999999ADDAU110030015AU200001015AW1105AW2715GA1075+001525999GA2085+005185999GD13991+0015259GD24991+0051859MA1100615100065REMMET10901/01/17 02:34:02 SPECI KBLI 011034Z 00000KT 1 1/2SM -SN BR BKN005 OVC017 01/01 A2971 RMK AO2 P0001 T00060006
0256727976242172017010110496+48794-122537FM-16+0046KBLI V0209999C00005003965MN0032195N5+00105+00105999999ADDAU110030015AU200001015AW1105AW2715GA1045+001525999GA2075+003965999GA3085+008845999GD12991+0015259GD23991+0039659GD34991+0088459MA1100615100065REMMET10201/01/17 02:49:02 SPECI KBLI 011049Z 00000KT 2SM -SN BR SCT005 BKN013 OVC029 01/01 A2971 RMK AO2 P0001
0284727976242172017010110536+48794-122537FM-15+0046KBLI V0209999C00005003965MN0048285N5+00065+00065100705ADDAA101000395AU110030015AU200001015AW1105AW2715GA1045+001525999GA2075+003965999GA3085+021345999GD12991+0015259GD23991+0039659GD34991+0213459MA1100615100065REMMET11901/01/17 02:53:02 METAR KBLI 011053Z 00000KT 3SM -SN BR SCT005 BKN013 OVC070 01/01 A2971 RMK AO2 SLP070 P0001 T00060006
0253727976242172017010111036+48794-122537FM-16+0046KBLI V0203505N00215014335MN0096565N5+00065+00065999999ADDAU100001015AW1105GA1045+002745999GA2075+014335999GA3085+021345999GD12991+0027459GD23991+0143359GD34991+0213459MA1100645100095REMMET11601/01/17 03:03:02 SPECI KBLI 011103Z 35004KT 6SM BR SCT009 BKN047 OVC070 01/01 A2972 RMK AO2 SNE1057 P0000 T00060006
0233727976242172017010111106+48794-122537FM-16+0046KBLI V0203505N00155003965MN0128755N5+00065+00065999999ADDGA1045+001225999GA2075+003965999GA3085+021345999GD12991+0012259GD23991+0039659GD34991+0213459MA1100615100065REMMET11301/01/17 03:10:02 SPECI KBLI 011110Z 35003KT 8SM SCT004 BKN013 OVC070 01/01 A2971 RMK AO2 SNE1057 P0000 T00060006
0233727976242172017010111176+48794-122537FM-16+0046KBLI V0203505N00265001225MN0112655N5+00065+00065999999ADDGA1075+001225999GA2075+014025999GA3085+021345999GD13991+0012259GD23991+0140259GD34991+0213459MA1100645100095REMMET11301/01/17 03:17:02 SPECI KBLI 011117Z 35005KT 7SM BKN004 BKN046 OVC070 01/01 A2972 RMK AO2 SNE1057 P0000 T00060006
0228727976242172017010111516+48794-122537FM-16+0046KBLI V0203505N00265033535MN0128755N5+00105+00105999999ADDGA1045+000915999GA2045+021345999GA3085+033535999GD12991+0009159GD22991+0213459GD34991+0335359MA1100615100065REMMET10801/01/17 03:51:02 SPECI KBLI 011151Z 35005KT 8SM SCT003 SCT070 OVC110 01/01 A2971 RMK AO2 SNE1057 P0001 FIBI
0317727976242172017010111536+48794-122537FM-15+0046KBLI V0203505N00265021345MN0128755N5+00065+00065100715ADDAA101000395AA206002091AA324005191GA1045+000915999GA2075+021345999GA3085+033535999GD12991+0009159GD23991+0213459GD34991+0335359MA1100615100065MD1090059+9999REMMET15001/01/17 03:53:02 METAR KBLI 011153Z 35005KT 8SM SCT003 BKN070 OVC110 01/01 A2971 RMK AO2 SNE1057 SLP071 P0001 60008 70020 T00060006 10011 20006 50005
0219727976242172017010112106+48794-122537FM-16+0046KBLI V0203405N00265000915MN0128755N5+00065+00065999999ADDGA1075+000915999GA2075+008535999GA3085+033535999GD13991+0009159GD23991+0085359GD34991+0335359MA1100585100035REMMET09901/01/17 04:10:02 SPECI KBLI 011210Z 34005KT 8SM BKN003 BKN028 OVC110 01/01 A2970 RMK AO2 T00060006
0219727976242172017010112536+48794-122537FM-15+0046KBLI V0203305N00315000915MN0096565N5+00065+00005100695ADDAA101000095AU100001015AW1105GA1075+000915999GA2085+022865999GD13991+0009159GD24991+0228659MA1100585100035REMMET10201/01/17 04:53:02 METAR KBLI 011253Z 33006KT 6SM BR BKN003 OVC075 01/00 A2970 RMK AO2 SLP069 T00060000
0201727976242172017010113076+48794-122537FM-16+0046KBLI V0203305N00365025915MN0096565N5+00065+00005999999ADDAU100001015AW1105GA1045+000915999GA2085+025915999GD12991+0009159GD24991+0259159MA1100585100035REMMET09501/01/17 05:07:02 SPECI KBLI 011307Z 33007KT 6SM BR SCT003 OVC085 01/00 A2970 RMK AO2 T00060000
0167727976242172017010113536+48794-122537FM-15+0046KBLI V0203405N00365022865MN0160935N5+00065+00005100695ADDAA101000095GA1085+022865999GD14991+0228659MA1100615100065REMMET09801/01/17 05:53:02 METAR KBLI 011353Z 34007KT 10SM OVC075 01/00 A2971 RMK AO2 SLP069 T00060000 (CC)
0188727976242172017010114536+48794-122537FM-15+0046KBLI V0203605N00515024385MN0160935N5+00065-00065100735ADDAA101000095GA1085+024385999GD14991+0243859MA1100645100095MD1390039+9999REMMET10501/01/17 06:53:02 METAR KBLI 011453Z 36010KT 10SM OVC080 01/M01 A2972 RMK AO2 SLP073 T00061006 53003 (CC)
0168727976242172017010115536+48794-122537FM-15+0046KBLI V0203605N00575030485MN0160935N5+00115-00065100735ADDAA101000095GA1085+030485999GD14991+0304859MA1100645100095REMMET09901/01/17 07:53:02 METAR KBLI 011553Z 36011KT 10SM OVC100 01/M01 A2972 RMK AO2 SLP073 T00111006 (CC)
0246727976242172017010116537+48794-122537FM-15+0046KBLI V0200105N007752200059N0160935N5+00115-00285100775ADDAA101000095GA1045+036585999GD12991+0365859GE19AGL   +99999+99999GF104995999999036581999999MA1100685100135OC101135REMMET10201/01/17 08:53:02 METAR KBLI 011653Z 01015G22KT 10SM SCT120 01/M03 A2973 RMK AO2 SLP077 T00111028 (CC)EQDD01      0ADE726
0197727976242172017010117536+48794-122537FM-15+0046KBLI V0203505N006752200059N0160935N5+00115-00225100805ADDAA101000095GA1005+999999999GD10991+9999999MA1100715100165MD1390069+9999REMMET11401/01/17 09:53:02 METAR KBLI 011753Z 35013KT 10SM CLR 01/M02 A2974 RMK AO2 SLP080 T00111022 10011 20006 53006 (CC)
0194727976242172017010118536+48794-122537FM-15+0046KBLI V0200205N008252200059N0160935N5+00115-00335100855ADDAA101000095GA1005+999999999GD10991+9999999MA1100755100205OC101135REMMET11701/01/17 10:53:02 METAR KBLI 011853Z 02016G22KT 10SM CLR 01/M03 A2975 RMK AO2 PK WND 02032/1831 SLP085 T00111033 (CC)
0194727976242172017010119536+48794-122537FM-15+0046KBLI V0200205N009852200059N0160935N5+00175-00395100865ADDAA101000095GA1005+999999999GD10991+9999999MA1100785100235OC101445REMMET11701/01/17 11:53:02 METAR KBLI 011953Z 02019G28KT 10SM CLR 02/M04 A2976 RMK AO2 PK WND 02028/1953 SLP086 T00171039 (CC)
0217727976242172017010120536+48794-122537FM-15+0046KBLI V0200205N00885033535MN0160935N5+00175-00505100875ADDAA101000095GA1085+033535999GD14991+0335359MA1100785100235MD1190079+9999OC101495REMMET12601/01/17 12:53:02 METAR KBLI 012053Z 02017G29KT 10SM OVC110 02/M05 A2976 RMK AO2 PK WND 02033/2027 SLP087 T00171050 51007 (CC)
0259727976242172017010121537+48794-122537FM-15+0046KBLI V0200205N00935033535MN0160935N5+00175-00565100895ADDAA101000095GA1085+033535999GD14991+0335359GE19MSL   +99999+99999GF199999999999033531999999MA1100785100235OC101605OD149901751040REMMET12001/01/17 13:53:02 METAR KBLI 012153Z 02018G31KT 10SM OVC110 02/M06 A2976 RMK AO2 PK WND 04034/2130 SLP089 T00171056 (CC)
0259727976242172017010122537+48794-122537FM-15+0046KBLI V0200205N00935033535MN0160935N5+00115-00675100925ADDAA101000095GA1085+033535999GD14991+0335359GE19MSL   +99999+99999GF199999999999033531999999MA1100815100265OC101855OD149901851020REMMET12001/01/17 14:53:02 METAR KBLI 012253Z 02018G36KT 10SM OVC110 01/M07 A2977 RMK AO2 PK WND 02036/2244 SLP092 T00111067 (WR)
0317727976242172017010123537+48794-122537FM-15+0046KBLI V0200205N01245036585MN0160935N5+00065-00725100955ADDAA101000095GA1085+036585999GD14991+0365859GE19MSL   +99999+99999GF199999999999036581999999KA1060M+00221KA2060N+00061MA1100855100305MD1390079+9999OC101805OD149901851030REMMET13801/01/17 15:53:02 METAR KBLI 012353Z 02024G35KT 10SM OVC120 01/M07 A2978 RMK AO2 PK WND 03036/2313 SLP095 T00061072 10022 20006 53007 (WR)
0273727976242172017010200537+48794-122537FM-15+0046KBLI V0200205N011852200059N0160935N5+00005-00835100995ADDAA101000095GA1045+036585999GD12991+0365859GE19AGL   +99999+99999GF104995999999036581999999MA1100885100335OC101755OD149901951030REMMET11501/01/17 16:53:01 METAR KBLI 020053Z 02023G34KT 10SM SCT120 00/M08 A2979 RMK AO2 PK WND 03038/0043 SLP099 T00001083EQDD01      0ADE726
0229727976242172017010201537+48794-122537FM-15+0046KBLI V0200305N010852200059N0160935N5+00005-00895101035ADDAA101000095GA1005+999999999GD10991+9999999GF100991999999999999999999MA1100915100365OC101805OD149901951020REMMET11201/01/17 17:53:01 METAR KBLI 020153Z 03021G35KT 10SM CLR 00/M09 A2980 RMK AO2 PK WND 02038/0132 SLP103 T00001089
0251727976242172017010202537+48794-122537FM-15+0046KBLI V0200305N012952200059N0160935N5+00005-01005101015ADDAA101000095GA1005+999999999GD10991+9999999GF100991999999999999999999MA1100915100365MD1090069+9999OC101805OD149902111020REMMET12001/01/17 18:53:02 METAR KBLI 020253Z 03025G35KT 10SM CLR 00/M10 A2980 RMK AO2 PK WND 02041/0234 SLP101 T00001100 50006 $
0205727976242172017010203537+48794-122537FM-15+0046KBLI V0200305N012959999999N0160935N5+00005-01065101095ADDAA101000095MA1100985100435OC101905OD149901901020REMMET11001/01/17 19:53:02 METAR KBLI 020353Z 03025G37KT 10SM 00/M11 A2982 RMK AO2 PK WND 02037/0349 SLP109 T00001106 $EQDR01      7SKY009R02      7GAS009
0231727976242172017010204537+48794-122537FM-15+0046KBLI V0200305N012452200059N0160935N5+00005-01115101135ADDAA101000095GA1005+999999999GD10991+9999999GF100991999999999999999999MA1101025100475OC101805OD149902001020REMMET11401/01/17 20:53:02 METAR KBLI 020453Z 03024G35KT 10SM CLR 00/M11 A2983 RMK AO2 PK WND 02039/0434 SLP113 T00001111 $
0252727976242172017010205537+48794-122537FM-15+0046KBLI V0200305N011352200059N0160935N5-00065-01115101205ADDAA101000095GA1005+999999999GD10991+9999999GF100991999999999999999999MA1101125100575MD1190199+9999OC101905OD149902161020REMMET12101/01/17 21:53:02 METAR KBLI 020553Z 03022G37KT 10SM CLR M01/M11 A2986 RMK AO2 PK WND 02042/0504 SLP120 T10061111 51019 $
0218727976242172017010206537+48794-122537FM-15+0046KBLI V0200205N009852200059N0160935N5-00065-01115101245ADDAA101000095GA1005+999999999GD10991+9999999GF100991999999999999999999MA1101155100605OC101755REMMET11501/01/17 22:53:02 METAR KBLI 020653Z 02019G34KT 10SM CLR M01/M11 A2987 RMK AO2 PK WND 03039/0619 SLP124 T10061111 $
0254727976242172017010207537+48794-122537FM-15+0046KBLI V0200205N010852200059N0160935N5-00115-01115101275ADDAA101000095GA1005+999999999GD10991+9999999GF100991999999999999999999KA1240M+00221KA2240N-00111MA1101195100635OC101805REMMET12501/01/17 23:53:02 METAR KBLI 020753Z 02021G35KT 10SM CLR M01/M11 A2988 RMK AO2 PK WND 02037/0743 SLP127 T10111111 400221011 $
0863727976242172017010207596+48794-122537SOD  +0046KBLI V020999999999999999999999999999+99999+99999999999ADDAA124001595AT1AU18SN  5AT2AU13BR  5AX1015245KA1240M+00225KA2240N-00105MG1100254100644OE11240214602099995OE22240147502099995OE33240076999999995REMSOD70924 HR PRECIPITATION (IN): 0.06 WEATHER(CODE):1  24 HR MAX TEMP (F): 3624 HR MIN TEMP (F): 30AVERAGE STATION PRESSURE:29.605 MINIMUM SEA LEVEL PRESSURE:29.72 TIME OF OCCURRENCE:0521 PEAK WIND SPEED (MPH): 48 PEAK WIND DIR (DEG): 20 PEAK WIND TIME (LST):      FASTEST 2MIN SPEED (MPH): 33FASTEST 2MIN DIR (DEG): 20 FASTEST 2MIN TIME (LST):     AVERAGE WIND SPEED (MPH):17.2 24 HR AVG TEMP (F): 33DEPART FROM NORMAL: -5  HEATING DEGREE DAYS: 32 COOLING DEGREE DAYS:  0 LATEST DAY MAX TEMP (0700-1900 LST):36  LATEST NIGHT MIN TEMP(1900-0800 LST):33 HOURLY INCREMENTAL PRECIPITATION VALUES (IN):.02 0.02 0.01 0.01 0.00 0.00 0.00 0.00 0.00 0.00 0.00 0.00 0.00 0.00 0.00 0.00 0.00 0.00 0.00 0.00 0.00 0.00 0.00 0.00
0238727976242172017010208537+48794-122537FM-15+0046KBLI V0200205N011852200059N0160935N5-00115-01175101325ADDAA101000095GA1005+999999999GD10991+9999999GF100991999999999999999999MA1101225100675MD1390129+9999OC101965REMMET12101/02/17 00:53:02 METAR KBLI 020853Z 02023G38KT 10SM CLR M01/M12 A2989 RMK AO2 PK WND 03038/0847 SLP132 T10111117 53012 $
0218727976242172017010209537+48794-122537FM-15+0046KBLI V0200305N011352200059N0160935N5-00115-01225101375ADDAA101000095GA1005+999999999GD10991+9999999GF100991999999999999999999MA1101295100745OC101805REMMET11501/02/17 01:53:02 METAR KBLI 020953Z 03022G35KT 10SM CLR M01/M12 A2991 RMK AO2 PK WND 04036/0905 SLP137 T10111122 $
0218727976242172017010210537+48794-122537FM-15+0046KBLI V0200305N010852200059N0160935N5-00115-01285101405ADDAA101000095GA1005+999999999GD10991+9999999GF100991999999999999999999MA1101295100745OC101705REMMET11501/02/17 02:53:02 METAR KBLI 021053Z 03021G33KT 10SM CLR M01/M13 A2991 RMK AO2 PK WND 04039/1035 SLP140 T10111128 $
0276727976242172017010211537+48794-122537FM-15+0046KBLI V0200205N010352200059N0160935N5-00175-01285101445ADDAA101000095GA1005+999999999GD10991+9999999GF100991999999999999999999KA1060M-00061KA2060N-00171MA1101325100775MD1190129+9999OC101855REMMET13301/02/17 03:53:02 METAR KBLI 021153Z 02020G36KT 10SM CLR M02/M13 A2992 RMK AO2 PK WND 03038/1128 SLP144 T10171128 11006 21017 51012 $
0218727976242172017010212537+48794-122537FM-15+0046KBLI V0200205N011852200059N0160935N5-00175-01335101455ADDAA101000095GA1005+999999999GD10991+9999999GF100991999999999999999999MA1101355100805OC101655REMMET11501/02/17 04:53:02 METAR KBLI 021253Z 02023G32KT 10SM CLR M02/M13 A2993 RMK AO2 PK WND 04035/1216 SLP145 T10171133 $
0218727976242172017010213537+48794-122537FM-15+0046KBLI V0200205N011352200059N0160935N5-00225-01395101535ADDAA101000095GA1005+999999999GD10991+9999999GF100991999999999999999999MA1101425100875OC101605REMMET11501/02/17 05:53:02 METAR KBLI 021353Z 02022G31KT 10SM CLR M02/M14 A2995 RMK AO2 PK WND 03040/1321 SLP153 T10221139 $
0257727976242172017010214537+48794-122537FM-15+0046KBLI V0200205N011852200059N0160935N5-00225-01445101585ADDAA101000095GA1005+999999999GD10991+9999999GF100991999999999999999999MA1101495100945MD1390159+9999OC101805OD149901901010REMMET12601/02/17 06:53:02 METAR KBLI 021453Z 02023G35KT 10SM CLR M02/M14 A2997 RMK AO2 PK WND 01037/1359 SLP158 T10221144 53015 $ (MN)
0237727976242172017010215537+48794-122537FM-15+0046KBLI V0200305N011352200059N0160935N5-00285-01505101615ADDAA101000095GA1005+999999999GD10991+9999999GF100991999999999999999999MA1101525100975OC101705OD149901901030REMMET12001/02/17 07:53:02 METAR KBLI 021553Z 03022G33KT 10SM CLR M03/M15 A2998 RMK AO2 PK WND 03037/1536 SLP161 T10281150 $ (MN)
0237727976242172017010216537+48794-122537FM-15+0046KBLI V0200205N012952200059N0160935N5-00225-01505101725ADDAA101000095GA1005+999999999GD10991+9999999GF100991999999999999999999MA1101635101075OC102275OD149902261030REMMET12001/02/17 08:53:02 METAR KBLI 021653Z 02025G44KT 10SM CLR M02/M15 A3001 RMK AO2 PK WND 03044/1649 SLP172 T10221150 $ (MN)
0295727976242172017010217537+48794-122537FM-15+0046KBLI V0200305N012452200059N0160935N5-00225-01565101805ADDAA101000095GA1005+999999999GD10991+9999999GF100991999999999999999999KA1060M-00171KA2060N-00281MA1101695101145MD1390229+9999OC101855OD149902261020REMMET13801/02/17 09:53:02 METAR KBLI 021753Z 03024G36KT 10SM CLR M02/M16 A3003 RMK AO2 PK WND 02044/1733 SLP180 T10221156 11017 21028 53022 $ (MN)
0237727976242172017010218537+48794-122537FM-15+0046KBLI V0200205N012452200059N0160935N5-00175-01565101885ADDAA101000095GA1005+999999999GD10991+9999999GF100991999999999999999999MA1101765101215OC101965OD149901951030REMMET12001/02/17 10:53:02 METAR KBLI 021853Z 02024G38KT 10SM CLR M02/M16 A3005 RMK AO2 PK WND 03038/1809 SLP188 T10171156 $ (MN)
0237727976242172017010219537+48794-122537FM-15+0046KBLI V0200205N010352200059N0160935N5-00115-01565101885ADDAA101000095GA1005+999999999GD10991+9999999GF100991999999999999999999MA1101795101245OC101805OD149901951010REMMET12001/02/17 11:53:02 METAR KBLI 021953Z 02020G35KT 10SM CLR M01/M16 A3006 RMK AO2 PK WND 01038/1912 SLP188 T10111156 $ (MN)
0257727976242172017010220537+48794-122537FM-15+0046KBLI V0200205N009852200059N0160935N5-00065-01565101905ADDAA101000095GA1005+999999999GD10991+9999999GF100991999999999999999999MA1101795101245MD1190109+9999OC101705OD149901951020REMMET12601/02/17 12:53:02 METAR KBLI 022053Z 02019G33KT 10SM CLR M01/M16 A3006 RMK AO2 PK WND 02038/2031 SLP190 T10061156 51010 $ (MN)
0237727976242172017010221537+48794-122537FM-15+0046KBLI V0200305N011852200059N0160935N5-00065-01505101945ADDAA101000095GA1005+999999999GD10991+9999999GF100991999999999999999999MA1101835101275OC101755OD149901851020REMMET12001/02/17 13:53:02 METAR KBLI 022153Z 03023G34KT 10SM CLR M01/M15 A3007 RMK AO2 PK WND 02036/2137 SLP194 T10061150 $ (MN)
0237727976242172017010222537+48794-122537FM-15+0046KBLI V0200305N011352200059N0160935N5-00065-01505101995ADDAA101000095GA1005+999999999GD10991+9999999GF100991999999999999999999MA1101905101345OC101755OD149901801040REMMET12001/02/17 14:53:02 METAR KBLI 022253Z 03022G34KT 10SM CLR M01/M15 A3009 RMK AO2 PK WND 04035/2201 SLP199 T10061150 $ (WR)
0295727976242172017010223537+48794-122537FM-15+0046KBLI V0200205N010852200059N0160935N5-00175-01505102065ADDAA101000095GA1005+999999999GD10991+9999999GF100991999999999999999999KA1060M-00061KA2060N-00221MA1101965101415MD1390169+9999OC101655OD149901751020REMMET13801/02/17 15:53:02 METAR KBLI 022353Z 02021G32KT 10SM CLR M02/M15 A3011 RMK AO2 PK WND 02034/2316 SLP206 T10171150 11006 21022 53016 $ (WR)
0232727976242172017010300537+48794-122537FM-15+0046KBLI V0200205N010352200059N0160935N5-00225-01445102115ADDAA101000095GA1005+999999999GD10991+9999999GF100991999999999999999999MA1102005101445OC101545OD149901801020REMMET11501/02/17 16:53:01 METAR KBLI 030053Z 02020G30KT 10SM CLR M02/M14 A3012 RMK AO2 PK WND 02035/0000 SLP211 T10221144 $
0232727976242172017010301537+48794-122537FM-15+0046KBLI V0200305N010852200059N0160935N5-00225-01505102155ADDAA101000095GA1005+999999999GD10991+9999999GF100991999999999999999999MA1102075101515OC101705OD149901851030REMMET11501/02/17 17:53:01 METAR KBLI 030153Z 03021G33KT 10SM CLR M02/M15 A3014 RMK AO2 PK WND 03036/0119 SLP215 T10221150 $
0252727976242172017010302537+48794-122537FM-15+0046KBLI V0200305N009852200059N0160935N5-00285-01565102225ADDAA101000095GA1005+999999999GD10991+9999999GF100991999999999999999999MA1102105101545MD1390159+9999OC101495OD149901801020REMMET12101/02/17 18:53:02 METAR KBLI 030253Z 03019G29KT 10SM CLR M03/M16 A3015 RMK AO2 PK WND 02035/0206 SLP222 T10281156 53015 $
0232727976242172017010303537+48794-122537FM-15+0046KBLI V0200305N008852200059N0160935N5-00285-01565102305ADDAA101000095GA1005+999999999GD10991+9999999GF100991999999999999999999MA1102205101655OC101545OD149901641010REMMET11501/02/17 19:53:02 METAR KBLI 030353Z 03017G30KT 10SM CLR M03/M16 A3018 RMK AO2 PK WND 01032/0322 SLP230 T10281156 $
0232727976242172017010304537+48794-122537FM-15+0046KBLI V0200205N008852200059N0160935N5-00285-01565102385ADDAA101000095GA1005+999999999GD10991+9999999GF100991999999999999999999MA1102275101715OC101805OD149901801010REMMET11501/02/17 20:53:02 METAR KBLI 030453Z 02017G35KT 10SM CLR M03/M16 A3020 RMK AO2 PK WND 01035/0444 SLP238 T10281156 $
0290727976242172017010305537+48794-122537FM-15+0046KBLI V0200305N009852200059N0160935N5-00285-01615102455ADDAA101000095GA1005+999999999GD10991+9999999GF100991999999999999999999KA1060M-00171KA2060N-00331MA1102345101785MD1190239+9999OC101605OD149901801030REMMET13301/02/17 21:53:02 METAR KBLI 030553Z 03019G31KT 10SM CLR M03/M16 A3022 RMK AO2 PK WND 03035/0532 SLP245 T10281161 11017 21033 51023 $
0218727976242172017010306537+48794-122537FM-15+0046KBLI V0200305N007752200059N0160935N5-00335-01615102495ADDAA101000095GA1005+999999999GD10991+9999999GF100991999999999999999999MA1102375101815OC101185REMMET11501/02/17 22:53:02 METAR KBLI 030653Z 03015G23KT 10SM CLR M03/M16 A3023 RMK AO2 PK WND 02031/0557 SLP249 T10331161 $
0236727976242172017010307537+48794-122537FM-15+0046KBLI V0200205N007752200059N0160935N5-00335-01615102565ADDAA101000095GA1005+999999999GD10991+9999999GF100991999999999999999999KA1240M-00061KA2240N-00331MA1102475101925OC101185REMMET10701/02/17 23:53:02 METAR KBLI 030753Z 02015G23KT 10SM CLR M03/M16 A3026 RMK AO2 SLP256 T10331161 410061033 $
0861727976242172017010307596+48794-122537SOD  +0046KBLI V020999999999999999999999999999+99999+99999999999ADDAA124000095AL12400095AN1024000095KA1240M-00055KA2240N-00325MG1101274101254OE11240228003099995OE22240147503099995OE33240106499999995REMSOD71824 HR PRECIPITATION (IN): 0.00  24 HR SNOWFALL (IN):0.0  24 HR MAX TEMP (F): 3124 HR MIN TEMP (F): 26AVERAGE STATION PRESSURE:29.905 MINIMUM SEA LEVEL PRESSURE:29.90 TIME OF OCCURRENCE:0011 PEAK WIND SPEED (MPH): 51 PEAK WIND DIR (DEG): 30 PEAK WIND TIME (LST):      FASTEST 2MIN SPEED (MPH): 33FASTEST 2MIN DIR (DEG): 30 FASTEST 2MIN TIME (LST):     AVERAGE WIND SPEED (MPH):23.8 24 HR AVG TEMP (F): 29DEPART FROM NORMAL: -9  HEATING DEGREE DAYS: 36 COOLING DEGREE DAYS:  0 LATEST DAY MAX TEMP (0700-1900 LST):31  LATEST NIGHT MIN TEMP(1900-0800 LST):27(HOURLY INCREMENTAL PRECIPITATION VALUES (IN):.00 0.00 0.00 0.00 0.00 0.00 0.00 0.00 0.00 0.00 0.00 0.00 0.00 0.00 0.00 0.00 0.00 0.00 0.00 0.00 0.00 0.00 0.00 0.00
0238727976242172017010308537+48794-122537FM-15+0046KBLI V0200205N010352200059N0160935N5-00335-01615102615ADDAA101000095GA1005+999999999GD10991+9999999GF100991999999999999999999MA1102515101955MD1390169+9999OC101495REMMET12101/03/17 00:53:02 METAR KBLI 030853Z 02020G29KT 10SM CLR M03/M16 A3027 RMK AO2 PK WND 01029/0852 SLP261 T10331161 53016 $
0218727976242172017010309537+48794-122537FM-15+0046KBLI V0200305N009352200059N0160935N5-00395-01675102635ADDAA101000095GA1005+999999999GD10991+9999999GF100991999999999999999999MA1102545101985OC101545REMMET11501/03/17 01:53:02 METAR KBLI 030953Z 03018G30KT 10SM CLR M04/M17 A3028 RMK AO2 PK WND 02035/0924 SLP263 T10391167 $
0218727976242172017010310537+48794-122537FM-15+0046KBLI V0200305N008852200059N0160935N5-00395-01615102695ADDAA101000095GA1005+999999999GD10991+9999999GF100991999999999999999999MA1102615102055OC101135REMMET11501/03/17 02:53:02 METAR KBLI 031053Z 03017G22KT 10SM CLR M04/M16 A3030 RMK AO2 PK WND 04028/1005 SLP269 T10391161 $
0276727976242172017010311537+48794-122537FM-15+0046KBLI V0200305N009352200059N0160935N5-00395-01675102745ADDAA101000095GA1005+999999999GD10991+9999999GF100991999999999999999999KA1060M-00281KA2060N-00391MA1102645102085MD1390129+9999OC101495REMMET13301/03/17 03:53:02 METAR KBLI 031153Z 03018G29KT 10SM CLR M04/M17 A3031 RMK AO2 PK WND 04029/1151 SLP274 T10391167 11028 21039 53012 $
0218727976242172017010312537+48794-122537FM-15+0046KBLI V0200205N008852200059N0160935N5-00395-01725102755ADDAA101000095GA1005+999999999GD10991+9999999GF100991999999999999999999MA1102645102085OC101605REMMET11501/03/17 04:53:02 METAR KBLI 031253Z 02017G31KT 10SM CLR M04/M17 A3031 RMK AO2 PK WND 02031/1248 SLP275 T10391172 $
0218727976242172017010313537+48794-122537FM-15+0046KBLI V0200105N008852200059N0160935N5-00445-01725102765ADDAA101000095GA1005+999999999GD10991+9999999GF100991999999999999999999MA1102645102085OC101605REMMET11501/03/17 05:53:02 METAR KBLI 031353Z 01017G31KT 10SM CLR M04/M17 A3031 RMK AO2 PK WND 01031/1313 SLP276 T10441172 $
0255727976242172017010314537+48794-122537FM-15+0046KBLI V0200205N009852200059N0160935N5-00445-01725102775ADDAA101000095GA1005+999999999GD10991+9999999GF100991999999999999999999MA1102645102085MD1190029+9999OC101545OD149901691020REMMET12401/03/17 06:53:02 METAR KBLI 031453Z 02019G30KT 10SM CLR M04/M17 A3031 RMK AO2 PK WND 02033/1429 SLP277 T10441172 51002 (MN)
0235727976242172017010315537+48794-122537FM-15+0046KBLI V0200205N009852200059N0160935N5-00445-01725102815ADDAA101000095GA1005+999999999GD10991+9999999GF100991999999999999999999MA1102715102155OC101445OD149901591020REMMET11801/03/17 07:53:02 METAR KBLI 031553Z 02019G28KT 10SM CLR M04/M17 A3033 RMK AO2 PK WND 02031/1510 SLP281 T10441172 (MN)
0235727976242172017010316537+48794-122537FM-15+0046KBLI V0200405N007252200059N0160935N5-00395-01725102835ADDAA101000095GA1005+999999999GD10991+9999999GF100991999999999999999999MA1102715102155OC101135OD149901491020REMMET11801/03/17 08:53:02 METAR KBLI 031653Z 04014G22KT 10SM CLR M04/M17 A3033 RMK AO2 PK WND 02029/1607 SLP283 T10391172 (MN)
0293727976242172017010317537+48794-122537FM-15+0046KBLI V0200305N009352200059N0160935N5-00335-01725102885ADDAA101000095GA1005+999999999GD10991+9999999GF100991999999999999999999KA1060M-00331KA2060N-00441MA1102785102225MD1390119+9999OC101395OD149901591020REMMET13601/03/17 09:53:02 METAR KBLI 031753Z 03018G27KT 10SM CLR M03/M17 A3035 RMK AO2 PK WND 02031/1739 SLP288 T10331172 11033 21044 53011 (MN)
0235727976242172017010318537+48794-122537FM-15+0046KBLI V0200305N009352200059N0160935N5-00225-01725102885ADDAA101000095GA1005+999999999GD10991+9999999GF100991999999999999999999MA1102785102225OC101545OD149901541030REMMET11801/03/17 10:53:02 METAR KBLI 031853Z 03018G30KT 10SM CLR M02/M17 A3035 RMK AO2 PK WND 03030/1848 SLP288 T10221172 (JC)
0235727976242172017010319537+48794-122537FM-15+0046KBLI V0200305N009852200059N0160935N5-00175-01725102875ADDAA101000095GA1005+999999999GD10991+9999999GF100991999999999999999999MA1102785102225OC101545OD149901691030REMMET11801/03/17 11:53:02 METAR KBLI 031953Z 03019G30KT 10SM CLR M02/M17 A3035 RMK AO2 PK WND 03033/1903 SLP287 T10171172 (JC)
0255727976242172017010320537+48794-122537FM-15+0046KBLI V0200305N011352200059N0160935N5-00175-01725102845ADDAA101000095GA1005+999999999GD10991+9999999GF100991999999999999999999MA1102745102195MD1890039+9999OC101705OD149901801020REMMET12401/03/17 12:53:02 METAR KBLI 032053Z 03022G33KT 10SM CLR M02/M17 A3034 RMK AO2 PK WND 02035/2031 SLP284 T10171172 58003 (JC)
0235727976242172017010321537+48794-122537FM-15+0046KBLI V0200205N010352200059N0160935N5-00175-01675102845ADDAA101000095GA1005+999999999GD10991+9999999GF100991999999999999999999MA1102745102195OC101705OD149901951030REMMET11801/03/17 13:53:02 METAR KBLI 032153Z 02020G33KT 10SM CLR M02/M17 A3034 RMK AO2 PK WND 03038/2110 SLP284 T10171167 (JC)
0235727976242172017010322537+48794-122537FM-15+0046KBLI V0200305N011852200059N0160935N5-00225-01725102855ADDAA101000095GA1005+999999999GD10991+9999999GF100991999999999999999999MA1102745102195OC101755OD149901801020REMMET11801/03/17 14:53:02 METAR KBLI 032253Z 03023G34KT 10SM CLR M02/M17 A3034 RMK AO2 PK WND 02035/2220 SLP285 T10221172 (JC)
0293727976242172017010323537+48794-122537FM-15+0046KBLI V0200205N007252200059N0160935N5-00285-01675102875ADDAA101000095GA1005+999999999GD10991+9999999GF100991999999999999999999KA1060M-00171KA2060N-00331MA1102745102195MD1390029+9999OC101545OD149901691030REMMET13601/03/17 15:53:02 METAR KBLI 032353Z 02014G30KT 10SM CLR M03/M17 A3034 RMK AO2 PK WND 03033/2329 SLP287 T10281167 11017 21033 53002 (CC)
0230727976242172017010400537+48794-122537FM-15+0046KBLI V0200205N010352200059N0160935N5-00285-01725102855ADDAA101000095GA1005+999999999GD10991+9999999GF100991999999999999999999MA1102745102195OC101705OD149901691010REMMET11301/03/17 16:53:01 METAR KBLI 040053Z 02020G33KT 10SM CLR M03/M17 A3034 RMK AO2 PK WND 01033/0044 SLP285 T10281172
0230727976242172017010401537+48794-122537FM-15+0046KBLI V0200205N011852200059N0160935N5-00335-01725102825ADDAA101000095GA1005+999999999GD10991+9999999GF100991999999999999999999MA1102715102155OC101755OD149901801020REMMET11301/03/17 17:53:01 METAR KBLI 040153Z 02023G34KT 10SM CLR M03/M17 A3033 RMK AO2 PK WND 02035/0120 SLP282 T10331172
0250727976242172017010402537+48794-122537FM-15+0046KBLI V0200305N009852200059N0160935N5-00335-01785102815ADDAA101000095GA1005+999999999GD10991+9999999GF100991999999999999999999MA1102715102155MD1690069+9999OC101755OD149901851020REMMET11901/03/17 18:53:01 METAR KBLI 040253Z 03019G34KT 10SM CLR M03/M18 A3033 RMK AO2 PK WND 02036/0155 SLP281 T10331178 56006
0230727976242172017010403537+48794-122537FM-15+0046KBLI V0200205N008852200059N0160935N5-00335-01835102845ADDAA101000095GA1005+999999999GD10991+9999999GF100991999999999999999999MA1102715102155OC101705OD149901851020REMMET11301/03/17 19:53:02 METAR KBLI 040353Z 02017G33KT 10SM CLR M03/M18 A3033 RMK AO2 PK WND 02036/0301 SLP284 T10331183
0230727976242172017010404537+48794-122537FM-15+0046KBLI V0200205N011852200059N0160935N5-00335-01835102805ADDAA101000095GA1005+999999999GD10991+9999999GF100991999999999999999999MA1102685102125OC102115OD149902111040REMMET11301/03/17 20:53:02 METAR KBLI 040453Z 02023G41KT 10SM CLR M03/M18 A3032 RMK AO2 PK WND 04041/0451 SLP280 T10331183
0288727976242172017010405537+48794-122537FM-15+0046KBLI V0200305N011352200059N0160935N5-00395-01785102775ADDAA101000095GA1005+999999999GD10991+9999999GF100991999999999999999999KA1060M-00281KA2060N-00391MA1102685102125MD1890049+9999OC102015OD149902051030REMMET13101/03/17 21:53:02 METAR KBLI 040553Z 03022G39KT 10SM CLR M04/M18 A3032 RMK AO2 PK WND 03040/0540 SLP277 T10391178 11028 21039 58004
0216727976242172017010406537+48794-122537FM-15+0046KBLI V0200305N013452200059N0160935N5-00335-01725102745ADDAA101000095GA1005+999999999GD10991+9999999GF100991999999999999999999MA1102645102085OC101805REMMET11301/03/17 22:53:02 METAR KBLI 040653Z 03026G35KT 10SM CLR M03/M17 A3031 RMK AO2 PK WND 02041/0639 SLP274 T10331172
0252727976242172017010407537+48794-122537FM-15+0046KBLI V0200205N010852200059N0160935N5-00395-01725102695ADDAA101000095GA1005+999999999GD10991+9999999GF100991999999999999999999KA1240M-00171KA2240N-00441MA1102575102025OC101755REMMET12301/03/17 23:53:02 METAR KBLI 040753Z 02021G34KT 10SM CLR M04/M17 A3029 RMK AO2 PK WND 03043/0706 SLP269 T10391172 410171044
0861727976242172017010407596+48794-122537SOD  +0046KBLI V020999999999999999999999999999+99999+99999999999ADDAA124000095AL12400095AN1024000095KA1240M-00165KA2240N-00435MG1102134102574OE11240223503099995OE22240147503099995OE33240099299999995REMSOD71824 HR PRECIPITATION (IN): 0.00  24 HR SNOWFALL (IN):0.0  24 HR MAX TEMP (F): 2924 HR MIN TEMP (F): 24AVERAGE STATION PRESSURE:30.160 MINIMUM SEA LEVEL PRESSURE:30.29 TIME OF OCCURRENCE:0042 PEAK WIND SPEED (MPH): 50 PEAK WIND DIR (DEG): 30 PEAK WIND TIME (LST):      FASTEST 2MIN SPEED (MPH): 33FASTEST 2MIN DIR (DEG): 30 FASTEST 2MIN TIME (LST):     AVERAGE WIND SPEED (MPH):22.2 24 HR AVG TEMP (F): 27DEPART FROM NORMAL:-11  HEATING DEGREE DAYS: 38 COOLING DEGREE DAYS:  0 LATEST DAY MAX TEMP (0700-1900 LST):29  LATEST NIGHT MIN TEMP(1900-0800 LST):24 HOURLY INCREMENTAL PRECIPITATION VALUES (IN):.00 0.00 0.00 0.00 0.00 0.00 0.00 0.00 0.00 0.00 0.00 0.00 0.00 0.00 0.00 0.00 0.00 0.00 0.00 0.00 0.00 0.00 0.00 0.00
0236727976242172017010408537+48794-122537FM-15+0046KBLI V0200205N008852200059N0160935N5-00395-01615102685ADDAA101000095GA1005+999999999GD10991+9999999GF100991999999999999999999MA1102575102025MD1690099+9999OC101705REMMET11901/04/17 00:53:02 METAR KBLI 040853Z 02017G33KT 10SM CLR M04/M16 A3029 RMK AO2 PK WND 02034/0804 SLP268 T10391161 56009
0216727976242172017010409537+48794-122537FM-15+0046KBLI V0200205N008852200059N0160935N5-00335-01565102635ADDAA101000095GA1005+999999999GD10991+9999999GF100991999999999999999999MA1102545101985OC101545REMMET11301/04/17 01:53:02 METAR KBLI 040953Z 02017G30KT 10SM CLR M03/M16 A3028 RMK AO2 PK WND 03031/0913 SLP263 T10331156
0216727976242172017010410537+48794-122537FM-15+0046KBLI V0200305N007252200059N0160935N5-00335-01505102625ADDAA101000095GA1005+999999999GD10991+9999999GF100991999999999999999999MA1102515101955OC101395REMMET11301/04/17 02:53:02 METAR KBLI 041053Z 03014G27KT 10SM CLR M03/M15 A3027 RMK AO2 PK WND 03029/1011 SLP262 T10331150
0274727976242172017010411537+48794-122537FM-15+0046KBLI V0200305N007252200059N0160935N5-00225-01565102605ADDAA101000095GA1005+999999999GD10991+9999999GF100991999999999999999999KA1060M-00221KA2060N-00391MA1102515101955MD1690069+9999OC101395REMMET13101/04/17 03:53:02 METAR KBLI 041153Z 03014G27KT 10SM CLR M02/M16 A3027 RMK AO2 PK WND 04033/1139 SLP260 T10221156 11022 21039 56006
0216727976242172017010412537+48794-122537FM-15+0046KBLI V0200405N008852200059N0160935N5-00175-01505102595ADDAA101000095GA1005+999999999GD10991+9999999GF100991999999999999999999MA1102515101955OC101245REMMET11301/04/17 04:53:02 METAR KBLI 041253Z 04017G24KT 10SM CLR M02/M15 A3027 RMK AO2 PK WND 03030/1208 SLP259 T10171150
0198727976242172017010413537+48794-122537FM-15+0046KBLI V0200405N006752200059N0160935N5-00225-01445102615ADDAA101000095GA1005+999999999GD10991+9999999GF100991999999999999999999MA1102515101955OC101085REMMET09501/04/17 05:53:02 METAR KBLI 041353Z 04013G21KT 10SM CLR M02/M14 A3027 RMK AO2 SLP261 T10221144
0223727976242172017010414537+48794-122537FM-15+0046KBLI V0200405N005752200059N0160935N5-00225-01395102595ADDAA101000095GA1005+999999999GD10991+9999999GF100991999999999999999999MA1102475101925MD1890029+9999OC101035REMMET10601/04/17 06:53:02 METAR KBLI 041453Z 04011G20KT 10SM CLR M02/M14 A3026 RMK AO2 SLP259 T10221139 58002 (MN)
0203727976242172017010415537+48794-122537FM-15+0046KBLI V0200405N007252200059N0160935N5-00225-01395102605ADDAA101000095GA1005+999999999GD10991+9999999GF100991999999999999999999MA1102515101955OC101085REMMET10001/04/17 07:53:02 METAR KBLI 041553Z 04014G21KT 10SM CLR M02/M14 A3027 RMK AO2 SLP260 T10221139 (MN)
0235727976242172017010416537+48794-122537FM-15+0046KBLI V0200305N007252200059N0160935N5-00175-01395102645ADDAA101000095GA1005+999999999GD10991+9999999GF100991999999999999999999MA1102545101985OC101245OD149901331030REMMET11801/04/17 08:53:02 METAR KBLI 041653Z 03014G24KT 10SM CLR M02/M14 A3028 RMK AO2 PK WND 03026/1635 SLP264 T10171139 (MN)
0292727976242172017010417537+48794-122537FM-15+0046KBLI V0200205N007752200059N0160935N5+00005-01395102685ADDAA101000095GA1005+999999999GD10991+9999999GF100991999999999999999999KA1060M+00001KA2060N-00281MA1102575102025MD1390109+9999OC101295OD149901331030REMMET13501/04/17 09:53:02 METAR KBLI 041753Z 02015G25KT 10SM CLR 00/M14 A3029 RMK AO2 PK WND 03026/1705 SLP268 T00001139 10000 21028 53010 (MN)
0234727976242172017010418537+48794-122537FM-15+0046KBLI V0200305N008852200059N0160935N5+00115-01395102695ADDAA101000095GA1005+999999999GD10991+9999999GF100991999999999999999999MA1102575102025OC101495OD149901491020REMMET11701/04/17 10:53:02 METAR KBLI 041853Z 03017G29KT 10SM CLR 01/M14 A3029 RMK AO2 PK WND 02029/1847 SLP269 T00111139 (JC)
0234727976242172017010419537+48794-122537FM-15+0046KBLI V0200305N008252200059N0160935N5+00225-01395102675ADDAA101000095GA1005+999999999GD10991+9999999GF100991999999999999999999MA1102575102025OC101755OD149901751020REMMET11701/04/17 11:53:02 METAR KBLI 041953Z 03016G34KT 10SM CLR 02/M14 A3029 RMK AO2 PK WND 02034/1948 SLP267 T00221139 (JC)
0254727976242172017010420537+48794-122537FM-15+0046KBLI V0200205N007252200059N0160935N5+00285-01285102665ADDAA101000095GA1005+999999999GD10991+9999999GF100991999999999999999999MA1102575102025MD1890029+9999OC101295OD149901491020REMMET12301/04/17 12:53:02 METAR KBLI 042053Z 02014G25KT 10SM CLR 03/M13 A3029 RMK AO2 PK WND 02029/2009 SLP266 T00281128 58002 (JC)
0234727976242172017010421537+48794-122537FM-15+0046KBLI V0203605N007752200059N0160935N5+00285-01225102685ADDAA101000095GA1005+999999999GD10991+9999999GF100991999999999999999999MA1102575102025OC101185OD149901331010REMMET11701/04/17 13:53:02 METAR KBLI 042153Z 36015G23KT 10SM CLR 03/M12 A3029 RMK AO2 PK WND 01026/2116 SLP268 T00281122 (JC)
0202727976242172017010422537+48794-122537FM-15+0046KBLI V0200105N007252200059N0160935N5+00285-01225102705ADDAA101000095GA1005+999999999GD10991+9999999GF100991999999999999999999MA1102615102055OC101085REMMET09901/04/17 14:53:02 METAR KBLI 042253Z 01014G21KT 10SM CLR 03/M12 A3030 RMK AO2 SLP270 T00281122 (JC)
0260727976242172017010423537+48794-122537FM-15+0046KBLI V0200105N005752200059N0160935N5+00175-01225102775ADDAA101000095GA1005+999999999GD10991+9999999GF100991999999999999999999KA1060M+00281KA2060N+00001MA1102685102125MD1390109+9999OC101035REMMET11701/04/17 15:53:02 METAR KBLI 042353Z 01011G20KT 10SM CLR 02/M12 A3032 RMK AO2 SLP277 T00171122 10028 20000 53010 (JC)
0186727976242172017010500537+48794-122537FM-15+0046KBLI V0200205N006752200059N0160935N5+00065-01175102805ADDAA101000095GA1005+999999999GD10991+9999999GF100991999999999999999999MA1102715102155REMMET09101/04/17 16:53:01 METAR KBLI 050053Z 02013KT 10SM CLR 01/M12 A3033 RMK AO2 SLP280 T00061117
0187727976242172017010501537+48794-122537FM-15+0046KBLI V0200305N004152200059N0160935N5-00065-01115102845ADDAA101000095GA1005+999999999GD10991+9999999GF100991999999999999999999MA1102745102195REMMET09201/04/17 17:53:01 METAR KBLI 050153Z 03008KT 10SM CLR M01/M11 A3034 RMK AO2 SLP284 T10061111
0207727976242172017010502537+48794-122537FM-15+0046KBLI V0200305N005752200059N0160935N5-00065-01065102865ADDAA101000095GA1005+999999999GD10991+9999999GF100991999999999999999999MA1102745102195MD1190099+9999REMMET09801/04/17 18:53:02 METAR KBLI 050253Z 03011KT 10SM CLR M01/M11 A3034 RMK AO2 SLP286 T10061106 51009
0187727976242172017010503537+48794-122537FM-15+0046KBLI V0203505N003152200059N0160935N5-00175-01065102915ADDAA101000095GA1005+999999999GD10991+9999999GF100991999999999999999999MA1102815102255REMMET09201/04/17 19:53:02 METAR KBLI 050353Z 35006KT 10SM CLR M02/M11 A3036 RMK AO2 SLP291 T10171106
0187727976242172017010504537+48794-122537FM-15+0046KBLI V0200105N003152200059N0160935N5-00285-01005102925ADDAA101000095GA1005+999999999GD10991+9999999GF100991999999999999999999MA1102815102255REMMET09201/04/17 20:53:02 METAR KBLI 050453Z 01006KT 10SM CLR M03/M10 A3036 RMK AO2 SLP292 T10281100
0245727976242172017010505537+48794-122537FM-15+0046KBLI V0209999C000052200059N0160935N5-00285-01005102955ADDAA101000095GA1005+999999999GD10991+9999999GF100991999999999999999999KA1060M+00171KA2060N-00501MA1102845102295MD1190099+9999REMMET11001/04/17 21:53:02 METAR KBLI 050553Z 00000KT 10SM CLR M03/M10 A3037 RMK AO2 SLP295 T10281100 10017 21050 51009
0187727976242172017010506537+48794-122537FM-15+0046KBLI V0209999C000052200059N0160935N5-00445-01005102985ADDAA101000095GA1005+999999999GD10991+9999999GF100991999999999999999999MA1102885102325REMMET09201/04/17 22:53:02 METAR KBLI 050653Z 00000KT 10SM CLR M04/M10 A3038 RMK AO2 SLP298 T10441100
0223727976242172017010507537+48794-122537FM-15+0046KBLI V0209999C000052200059N0160935N5-00565-01005102985ADDAA101000095GA1005+999999999GD10991+9999999GF100991999999999999999999KA1240M+00281KA2240N-00671MA1102885102325REMMET10201/04/17 23:53:02 METAR KBLI 050753Z 00000KT 10SM CLR M06/M10 A3038 RMK AO2 SLP298 T10561100 400281067
0880727976242172017010507596+48794-122537SOD  +0046KBLI V020999999999999999999999999999+99999+99999999999ADDAA124000095AL12400095AN1024000095KA1240M+00285KA2240N-00386MG1102084102574OE11240174302099995OE22240116202099995OE33240059599999995REMSOD71824 HR PRECIPITATION (IN): 0.00  24 HR SNOWFALL (IN):0.0  24 HR MAX TEMP (F): 3724 HR MIN TEMP (F): 25AVERAGE STATION PRESSURE:30.145 MINIMUM SEA LEVEL PRESSURE:30.29 TIME OF OCCURRENCE:0742 PEAK WIND SPEED (MPH): 39 PEAK WIND DIR (DEG): 20 PEAK WIND TIME (LST):      FASTEST 2MIN SPEED (MPH): 26FASTEST 2MIN DIR (DEG): 20 FASTEST 2MIN TIME (LST):     AVERAGE WIND SPEED (MPH):13.3 24 HR AVG TEMP (F): 31DEPART FROM NORMAL: -7  HEATING DEGREE DAYS: 34 COOLING DEGREE DAYS:  0 LATEST DAY MAX TEMP (0700-1900 LST):37  LATEST NIGHT MIN TEMP(1900-0800 LST):25 HOURLY INCREMENTAL PRECIPITATION VALUES (IN):.00 0.00 0.00 0.00 0.00 0.00 0.00 0.00 0.00 0.00 0.00 0.00 0.00 0.00 0.00 0.00 0.00 0.00 0.00 0.00 0.00 0.00 0.00 0.00EQDR01    257KAN011
0207727976242172017010508537+48794-122537FM-15+0046KBLI V0209999C000052200059N0160935N5-00565-00945102995ADDAA101000095GA1005+999999999GD10991+9999999GF100991999999999999999999MA1102885102325MD1190049+9999REMMET09801/05/17 00:53:02 METAR KBLI 050853Z 00000KT 10SM CLR M06/M09 A3038 RMK AO2 SLP299 T10561094 51004
0187727976242172017010509537+48794-122537FM-15+0046KBLI V0200105N003152200059N0160935N5-00615-00945102985ADDAA101000095GA1005+999999999GD10991+9999999GF100991999999999999999999MA1102885102325REMMET09201/05/17 01:53:02 METAR KBLI 050953Z 01006KT 10SM CLR M06/M09 A3038 RMK AO2 SLP298 T10611094
0187727976242172017010510537+48794-122537FM-15+0046KBLI V0209999C000052200059N0160935N5-00675-00945102965ADDAA101000095GA1005+999999999GD10991+9999999GF100991999999999999999999MA1102845102295REMMET09201/05/17 02:53:02 METAR KBLI 051053Z 00000KT 10SM CLR M07/M09 A3037 RMK AO2 SLP296 T10671094
0245727976242172017010511537+48794-122537FM-15+0046KBLI V0209999C000052200059N0160935N5-00675-01005102925ADDAA101000095GA1005+999999999GD10991+9999999GF100991999999999999999999KA1060M-00281KA2060N-00781MA1102815102255MD1890089+9999REMMET11001/05/17 03:53:02 METAR KBLI 051153Z 00000KT 10SM CLR M07/M10 A3036 RMK AO2 SLP292 T10671100 11028 21078 58008
0187727976242172017010512537+48794-122537FM-15+0046KBLI V0209999C000052200059N0160935N5-00785-01065102915ADDAA101000095GA1005+999999999GD10991+9999999GF100991999999999999999999MA1102785102225REMMET09201/05/17 04:53:02 METAR KBLI 051253Z 00000KT 10SM CLR M08/M11 A3035 RMK AO2 SLP291 T10781106
0187727976242172017010513537+48794-122537FM-15+0046KBLI V0209999C000052200059N0160935N5-00785-00945102855ADDAA101000095GA1005+999999999GD10991+9999999GF100991999999999999999999MA1102745102195REMMET09201/05/17 05:53:02 METAR KBLI 051353Z 00000KT 10SM CLR M08/M09 A3034 RMK AO2 SLP285 T10781094
0186727976242172017010514536+48794-122537FM-15+0046KBLI V0209999C000052200059N0160935N5-00835-01005102825ADDAA101000095GA1005+999999999GD10991+9999999MA1102715102155MD1890119+9999REMMET10301/05/17 06:53:02 METAR KBLI 051453Z 00000KT 10SM CLR M08/M10 A3033 RMK AO2 SLP282 T10831100 58011 (MN)
0207727976242172017010515537+48794-122537FM-15+0046KBLI V0209999C000052200059N0160935N5-00785-00945102825ADDAA101000095GA1005+999999999GD10991+9999999GF100991999999999999999999MA1102715102155WA1900099REMMET10301/05/17 07:53:02 METAR KBLI 051553Z 00000KT 10SM CLR M08/M09 A3033 RMK AO2 SLP282 I1000 T10781094 (MN)
0192727976242172017010516537+48794-122537FM-15+0046KBLI V0209999C000052200059N0160935N5-00675-00835102825ADDAA101000095GA1005+999999999GD10991+9999999GF100991999999999999999999MA1102715102155REMMET09701/05/17 08:53:02 METAR KBLI 051653Z 00000KT 10SM CLR M07/M08 A3033 RMK AO2 SLP282 T10671083 (MN)
0265727976242172017010517537+48794-122537FM-15+0046KBLI V0203605N001552200059N0160935N5-00445-00785102795ADDAA101000095GA1005+999999999GD10991+9999999GF100991999999999999999999KA1060M-00441KA2060N-00891MA1102685102125MD1890029+9999WA1900099REMMET12101/05/17 09:53:02 METAR KBLI 051753Z 36003KT 10SM CLR M04/M08 A3032 RMK AO2 SLP279 I6000 T10441078 11044 21089 58002 (MN)
0192727976242172017010518537+48794-122537FM-15+0046KBLI V0209999C000052200059N0160935N5-00175-00615102745ADDAA101000095GA1005+999999999GD10991+9999999GF100991999999999999999999MA1102645102085REMMET09701/05/17 10:53:02 METAR KBLI 051853Z 00000KT 10SM CLR M02/M06 A3031 RMK AO2 SLP274 T10171061 (MN)
0191727976242172017010519537+48794-122537FM-15+0046KBLI V0209999C000052200059N0160935N5+00005-00565102685ADDAA101000095GA1005+999999999GD10991+9999999GF100991999999999999999999MA1102575102025REMMET09601/05/17 11:53:02 METAR KBLI 051953Z 00000KT 10SM CLR 00/M06 A3029 RMK AO2 SLP268 T00001056 (MN)
0255727976242172017010520537+48794-122537FM-15+0046KBLI V0203305N001552200059N0160935N5+00115-00565102605ADDAA101000095GA1045+033535999GD12991+0335359GE19AGL   +99999+99999GF104995999999033531999999MA1102515101955MD1890189+9999REMMET10501/05/17 12:53:02 METAR KBLI 052053Z 33003KT 10SM SCT110 01/M06 A3027 RMK AO2 SLP260 T00111056 58018 (MN)EQDD01      0ADE726
0191727976242172017010521537+48794-122537FM-15+0046KBLI V0209999V001552200059N0160935N5+00175-00725102525ADDAA101000095GA1005+999999999GD10991+9999999GF100991999999999999999999MA1102405101855REMMET09601/05/17 13:53:02 METAR KBLI 052153Z VRB03KT 10SM CLR 02/M07 A3024 RMK AO2 SLP252 T00171072 (MN)
0191727976242172017010522537+48794-122537FM-15+0046KBLI V0209999C000052200059N0160935N5+00175-00725102475ADDAA101000095GA1005+999999999GD10991+9999999GF100991999999999999999999MA1102375101815REMMET09601/05/17 14:53:02 METAR KBLI 052253Z 00000KT 10SM CLR 02/M07 A3023 RMK AO2 SLP247 T00171072 (MN)
0250727976242172017010523537+48794-122537FM-15+0046KBLI V0209999C000052200059N0160935N5-00115-00505102465ADDAA101000095GA1005+999999999GD10991+9999999GF100991999999999999999999KA1060M+00221KA2060N-00441MA1102345101785MD1690159+9999REMMET11501/05/17 15:53:02 METAR KBLI 052353Z 00000KT 10SM CLR M01/M05 A3022 RMK AO2 SLP246 T10111050 10022 21044 56015 (WR)
0187727976242172017010600537+48794-122537FM-15+0046KBLI V0209999C000052200059N0160935N5-00285-00615102395ADDAA101000095GA1005+999999999GD10991+9999999GF100991999999999999999999MA1102275101715REMMET09201/05/17 16:53:01 METAR KBLI 060053Z 00000KT 10SM CLR M03/M06 A3020 RMK AO2 SLP239 T10281061
0187727976242172017010601537+48794-122537FM-15+0046KBLI V0209999C000052200059N0160935N5-00285-00675102375ADDAA101000095GA1005+999999999GD10991+9999999GF100991999999999999999999MA1102275101715REMMET09201/05/17 17:53:01 METAR KBLI 060153Z 00000KT 10SM CLR M03/M07 A3020 RMK AO2 SLP237 T10281067
0207727976242172017010602537+48794-122537FM-15+0046KBLI V0209999C000052200059N0160935N5-00285-00725102325ADDAA101000095GA1005+999999999GD10991+9999999GF100991999999999999999999MA1102205101655MD1690149+9999REMMET09801/05/17 18:53:02 METAR KBLI 060253Z 00000KT 10SM CLR M03/M07 A3018 RMK AO2 SLP232 T10281072 56014
0187727976242172017010603537+48794-122537FM-15+0046KBLI V0209999C000052200059N0160935N5-00395-00675102275ADDAA101000095GA1005+999999999GD10991+9999999GF100991999999999999999999MA1102175101615REMMET09201/05/17 19:53:02 METAR KBLI 060353Z 00000KT 10SM CLR M04/M07 A3017 RMK AO2 SLP227 T10391067
0212727976242172017010604537+48794-122537FM-15+0046KBLI V0209999C00005014335MN0160935N5-00335-00675102285ADDAA101000095GA1085+014335999GD14991+0143359GE19MSL   +99999+99999GF199999999999014331999999MA1102175101615REMMET09501/05/17 20:53:02 METAR KBLI 060453Z 00000KT 10SM OVC047 M03/M07 A3017 RMK AO2 SLP228 T10331067
0232727976242172017010605407+48794-122537FM-16+0046KBLI V0209999C00005008845MN0160935N5-00285-00675999999ADDGA1075+008845999GA2085+013115999GD13991+0088459GD24991+0131159GE19MSL   +99999+99999GF199999999999008841999999MA1102135101585REMMET09501/05/17 21:40:02 SPECI KBLI 060540Z 00000KT 10SM BKN029 OVC043 M03/M07 A3016 RMK AO2 T10281067
0270727976242172017010605537+48794-122537FM-15+0046KBLI V0209999C00005008845MN0160935N5-00285-00615102245ADDAA101000095GA1085+008845999GD14991+0088459GE19MSL   +99999+99999GF199999999999008841999999KA1060M-00111KA2060N-00391MA1102135101585MD1690089+9999REMMET11301/05/17 21:53:02 METAR KBLI 060553Z 00000KT 10SM OVC029 M03/M06 A3016 RMK AO2 SLP224 T10281061 11011 21039 56008
0212727976242172017010606537+48794-122537FM-15+0046KBLI V0209999C00005008535MN0160935N5-00225-00615102175ADDAA101000095GA1085+008535999GD14991+0085359GE19MSL   +99999+99999GF199999999999008531999999MA1102075101515REMMET09501/05/17 22:53:02 METAR KBLI 060653Z 00000KT 10SM OVC028 M02/M06 A3014 RMK AO2 SLP217 T10221061
0248727976242172017010607537+48794-122537FM-15+0046KBLI V0209999C00005008845MN0160935N5-00225-00565102095ADDAA101000095GA1085+008845999GD14991+0088459GE19MSL   +99999+99999GF199999999999008841999999KA1240M+00221KA2240N-00891MA1102005101445REMMET10501/05/17 23:53:02 METAR KBLI 060753Z 00000KT 10SM OVC029 M02/M06 A3012 RMK AO2 SLP209 T10221056 400221089
0861727976242172017010607596+48794-122537SOD  +0046KBLI V020999999999999999999999999999+99999+99999999999ADDAA124000095AL12400095AN1024000095KA1240M+00225KA2240N-00885MG1101934102104OE11240040201099995OE22240031301099995OE33240003199999995REMSOD71824 HR PRECIPITATION (IN): 0.00  24 HR SNOWFALL (IN):0.0  24 HR MAX TEMP (F): 3624 HR MIN TEMP (F): 16AVERAGE STATION PRESSURE:30.100 MINIMUM SEA LEVEL PRESSURE:30.15 TIME OF OCCURRENCE:2359 PEAK WIND SPEED (MPH):  9 PEAK WIND DIR (DEG): 10 PEAK WIND TIME (LST):      FASTEST 2MIN SPEED (MPH):  7FASTEST 2MIN DIR (DEG): 10 FASTEST 2MIN TIME (LST):     AVERAGE WIND SPEED (MPH): 0.7 24 HR AVG TEMP (F): 26DEPART FROM NORMAL:-12  HEATING DEGREE DAYS: 39 COOLING DEGREE DAYS:  0 LATEST DAY MAX TEMP (0700-1900 LST):36  LATEST NIGHT MIN TEMP(1900-0800 LST):16 HOURLY INCREMENTAL PRECIPITATION VALUES (IN):.00 0.00 0.00 0.00 0.00 0.00 0.00 0.00 0.00 0.00 0.00 0.00 0.00 0.00 0.00 0.00 0.00 0.00 0.00 0.00 0.00 0.00 0.00 0.00
0270727976242172017010608127+48794-122537FM-16+0046KBLI V0203505N00155013415MN0160935N5-00225-00615999999ADDGA1025+009145999GA2075+013415999GA3085+016765999GD11991+0091459GD23991+0134159GD34991+0167659GE19MSL   +99999+99999GF199999999999009141999999MA1101965101415REMMET10201/06/17 00:12:02 SPECI KBLI 060812Z 35003KT 10SM FEW030 BKN044 OVC055 M02/M06 A3011 RMK AO2 T10221061
0308727976242172017010608537+48794-122537FM-15+0046KBLI V0203605N00155009755MN0160935N5-00225-00615102045ADDAA101000095GA1075+009755999GA2075+014335999GA3085+018295999GD13991+0097559GD23991+0143359GD34991+0182959GE19MSL   +99999+99999GF199999999999009751999999MA1101935101385MD1690199+9999REMMET11501/06/17 00:53:02 METAR KBLI 060853Z 36003KT 10SM BKN032 BKN047 OVC060 M02/M06 A3010 RMK AO2 SLP204 T10221061 56019
0212727976242172017010609537+48794-122537FM-15+0046KBLI V0209999C00005015245MN0160935N5-00225-00675102055ADDAA101000095GA1085+015245999GD14991+0152459GE19MSL   +99999+99999GF199999999999015241999999MA1101965101415REMMET09501/06/17 01:53:02 METAR KBLI 060953Z 00000KT 10SM OVC050 M02/M07 A3011 RMK AO2 SLP205 T10221067
0212727976242172017010610537+48794-122537FM-15+0046KBLI V0209999C00005018295MN0160935N5-00225-00615102025ADDAA101000095GA1085+018295999GD14991+0182959GE19MSL   +99999+99999GF199999999999018291999999MA1101935101385REMMET09501/06/17 02:53:02 METAR KBLI 061053Z 00000KT 10SM OVC060 M02/M06 A3010 RMK AO2 SLP202 T10221061
0308727976242172017010611537+48794-122537FM-15+0046KBLI V0200105N00155018295MN0160935N5-00225-00675101975ADDAA101000095GA1045+015245999GA2085+018295999GD12991+0152459GD24991+0182959GE19MSL   +99999+99999GF199999999999015241999999KA1060M-00221KA2060N-00281MA1101865101315MD1890079+9999REMMET12001/06/17 03:53:02 METAR KBLI 061153Z 01003KT 10SM SCT050 OVC060 M02/M07 A3008 RMK AO2 SLP197 T10221067 11022 21028 58007
0212727976242172017010612537+48794-122537FM-15+0046KBLI V0200105N00155018295MN0160935N5-00175-00615101935ADDAA101000095GA1085+018295999GD14991+0182959GE19MSL   +99999+99999GF199999999999018291999999MA1101835101275REMMET09501/06/17 04:53:02 METAR KBLI 061253Z 01003KT 10SM OVC060 M02/M06 A3007 RMK AO2 SLP193 T10171061
0212727976242172017010613537+48794-122537FM-15+0046KBLI V0209999C00005019815MN0160935N5-00225-00615101865ADDAA101000095GA1085+019815999GD14991+0198159GE19MSL   +99999+99999GF199999999999019811999999MA1101765101215REMMET09501/06/17 05:53:02 METAR KBLI 061353Z 00000KT 10SM OVC065 M02/M06 A3005 RMK AO2 SLP186 T10221061
0237727976242172017010614537+48794-122537FM-15+0046KBLI V0201805N00155021345MN0160935N5-00065-00675101785ADDAA101000095GA1085+021345999GD14991+0213459GE19MSL   +99999+99999GF199999999999021341999999MA1101695101145MD1890199+9999REMMET10601/06/17 06:53:02 METAR KBLI 061453Z 18003KT 10SM OVC070 M01/M07 A3003 RMK AO2 SLP178 T10061067 58019 (MN)
0199727976242172017010615447+48794-122537FM-16+0046KBLI V0203605N00315021345MN0160935N5-00175-00615999999ADDGA1085+021345999GD14991+0213459GE19MSL   +99999+99999GF199999999999021341999999MA1101735101175REMMET09301/06/17 07:44:02 SPECI KBLI 061544Z 36006KT 10SM OVC070 M02/M06 A3004 RMK AO2 T10171061 (MN)
0217727976242172017010615537+48794-122537FM-15+0046KBLI V0200205N00155021345MN0160935N5-00175-00615101815ADDAA101000095GA1085+021345999GD14991+0213459GE19MSL   +99999+99999GF199999999999021341999999MA1101695101145REMMET10001/06/17 07:53:02 METAR KBLI 061553Z 02003KT 10SM OVC070 M02/M06 A3003 RMK AO2 SLP181 T10171061 (MN)
0255727976242172017010616537+48794-122537FM-15+0046KBLI V0203505N00265022865MN0160935N5-00115-00565101845ADDAA101000095GA1025+018295999GA2085+022865999GD11991+0182959GD24991+0228659GE19MSL   +99999+99999GF199999999999018291999999MA1101735101175REMMET10701/06/17 08:53:02 METAR KBLI 061653Z 35005KT 10SM FEW060 OVC075 M01/M06 A3004 RMK AO2 SLP184 T10111056 (MN)
0313727976242172017010617537+48794-122537FM-15+0046KBLI V0200205N00215016765MN0160935N5-00065-00505101845ADDAA101000095GA1075+016765999GA2085+024385999GD13991+0167659GD24991+0243859GE19MSL   +99999+99999GF199999999999016761999999KA1060M-00061KA2060N-00221MA1101765101215MD1190069+9999REMMET12501/06/17 09:53:02 METAR KBLI 061753Z 02004KT 10SM BKN055 OVC080 M01/M05 A3005 RMK AO2 SLP184 T10061050 11006 21022 51006 (MN)
0254727976242172017010618537+48794-122537FM-15+0046KBLI V0209999V00155024385MN0160935N5+00065-00505101865ADDAA101000095GA1045+016765999GA2075+024385999GD12991+0167659GD23991+0243859GE19MSL   +99999+99999GF199999999999016761999999MA1101765101215REMMET10601/06/17 10:53:02 METAR KBLI 061853Z VRB03KT 10SM SCT055 BKN080 01/M05 A3005 RMK AO2 SLP186 T00061050 (MN)
0254727976242172017010619537+48794-122537FM-15+0046KBLI V0200405N00215021345MN0160935N5+00175-00505101785ADDAA101000095GA1045+015245999GA2075+021345999GD12991+0152459GD23991+0213459GE19MSL   +99999+99999GF199999999999015241999999MA1101695101145REMMET10601/06/17 11:53:02 METAR KBLI 061953Z 04004KT 10SM SCT050 BKN070 02/M05 A3003 RMK AO2 SLP178 T00171050 (MN)
0236727976242172017010620537+48794-122537FM-15+0046KBLI V0200205N00265021345MN0160935N5+00285-00445101755ADDAA101000095GA1085+021345999GD14991+0213459GE19MSL   +99999+99999GF199999999999021341999999MA1101665101115MD1890099+9999REMMET10501/06/17 12:53:02 METAR KBLI 062053Z 02005KT 10SM OVC070 03/M04 A3002 RMK AO2 SLP175 T00281044 58009 (MN)
0216727976242172017010621537+48794-122537FM-15+0046KBLI V0200105N00265021345MN0160935N5+00395-00505101715ADDAA101000095GA1085+021345999GD14991+0213459GE19MSL   +99999+99999GF199999999999021341999999MA1101635101075REMMET09901/06/17 13:53:02 METAR KBLI 062153Z 01005KT 10SM OVC070 04/M05 A3001 RMK AO2 SLP171 T00391050 (MN)
0216727976242172017010622537+48794-122537FM-15+0046KBLI V0200305N00265021345MN0160935N5+00335-00445101705ADDAA101000095GA1085+021345999GD14991+0213459GE19MSL   +99999+99999GF199999999999021341999999MA1101595101045REMMET09901/06/17 14:53:02 METAR KBLI 062253Z 03005KT 10SM OVC070 03/M04 A3000 RMK AO2 SLP170 T00331044 (MN)
0274727976242172017010623537+48794-122537FM-15+0046KBLI V0200105N00315021345MN0160935N5+00225-00445101725ADDAA101000095GA1075+021345999GD13991+0213459GE19MSL   +99999+99999GF199999999999021341999999KA1060M+00441KA2060N-00061MA1101635101075MD1590039+9999REMMET11701/06/17 15:53:02 METAR KBLI 062353Z 01006KT 10SM BKN070 02/M04 A3001 RMK AO2 SLP172 T00221044 10044 21006 55003 (CC)
0186727976242172017010700537+48794-122537FM-15+0046KBLI V0203605N002152200059N0160935N5+00005-00445101695ADDAA101000095GA1005+999999999GD10991+9999999GF100991999999999999999999MA1101595101045REMMET09101/06/17 16:53:01 METAR KBLI 070053Z 36004KT 10SM CLR 00/M04 A3000 RMK AO2 SLP169 T00001044
0187727976242172017010701537+48794-122537FM-15+0046KBLI V0203605N001552200059N0160935N5-00065-00445101665ADDAA101000095GA1005+999999999GD10991+9999999GF100991999999999999999999MA1101565101015REMMET09201/06/17 17:53:01 METAR KBLI 070153Z 36003KT 10SM CLR M01/M04 A2999 RMK AO2 SLP166 T10061044
0251727976242172017010702537+48794-122537FM-15+0046KBLI V0200205N002152200059N0160935N5-00115-00505101685ADDAA101000095GA1025+036585999GD11991+0365859GE19AGL   +99999+99999GF102995999999036581999999MA1101595101045MD1590049+9999REMMET10101/06/17 18:53:02 METAR KBLI 070253Z 02004KT 10SM FEW120 M01/M05 A3000 RMK AO2 SLP168 T10111050 55004EQDD01      0ADE726
0231727976242172017010703537+48794-122537FM-15+0046KBLI V0209999C000052200059N0160935N5-00115-00505101685ADDAA101000095GA1025+036585999GD11991+0365859GE19AGL   +99999+99999GF102995999999036581999999MA1101595101045REMMET09501/06/17 19:53:02 METAR KBLI 070353Z 00000KT 10SM FEW120 M01/M05 A3000 RMK AO2 SLP168 T10111050EQDD01      0ADE726
0187727976242172017010704537+48794-122537FM-15+0046KBLI V0209999C000052200059N0160935N5-00175-00505101685ADDAA101000095GA1005+999999999GD10991+9999999GF100991999999999999999999MA1101595101045REMMET09201/06/17 20:53:02 METAR KBLI 070453Z 00000KT 10SM CLR M02/M05 A3000 RMK AO2 SLP168 T10171050
0245727976242172017010705537+48794-122537FM-15+0046KBLI V0209999C000052200059N0160935N5-00225-00565101695ADDAA101000095GA1005+999999999GD10991+9999999GF100991999999999999999999KA1060M+00221KA2060N-00221MA1101595101045MD1390019+9999REMMET11001/06/17 21:53:02 METAR KBLI 070553Z 00000KT 10SM CLR M02/M06 A3000 RMK AO2 SLP169 T10221056 10022 21022 53001
0187727976242172017010706537+48794-122537FM-15+0046KBLI V0209999C000052200059N0160935N5-00395-00675101695ADDAA101000095GA1005+999999999GD10991+9999999GF100991999999999999999999MA1101595101045REMMET09201/06/17 22:53:02 METAR KBLI 070653Z 00000KT 10SM CLR M04/M07 A3000 RMK AO2 SLP169 T10391067
0223727976242172017010707537+48794-122537FM-15+0046KBLI V0209999C000052200059N0160935N5-00285-00615101695ADDAA101000095GA1005+999999999GD10991+9999999GF100991999999999999999999KA1240M+00441KA2240N-00391MA1101595101045REMMET10201/06/17 23:53:02 METAR KBLI 070753Z 00000KT 10SM CLR M03/M06 A3000 RMK AO2 SLP169 T10281061 400441039
0899727976242172017010707596+48794-122537SOD  +0046KBLI V020999999999999999999999999999+99999+99999999999ADDAA124000095AJ100009599999999AL12400095AN1024000095KA1240M+00445KA2240N-00385MG1101134101664OE11240049203099995OE22240040202099995OE33240013499999995REMSOD73924 HR PRECIPITATION (IN): 0.00 SNOW DEPTH (IN):0     24 HR SNOWFALL (IN):0.0  24 HR MAX TEMP (F): 4024 HR MIN TEMP (F): 25AVERAGE STATION PRESSURE:29.865 MINIMUM SEA LEVEL PRESSURE:30.02 TIME OF OCCURRENCE:2359 PEAK WIND SPEED (MPH): 11 PEAK WIND DIR (DEG): 30 PEAK WIND TIME (LST):      FASTEST 2MIN SPEED (MPH):  9FASTEST 2MIN DIR (DEG): 20 FASTEST 2MIN TIME (LST):     AVERAGE WIND SPEED (MPH): 3.0 24 HR AVG TEMP (F): 33DEPART FROM NORMAL: -5  HEATING DEGREE DAYS: 32 COOLING DEGREE DAYS:  0 LATEST DAY MAX TEMP (0700-1900 LST):40  LATEST NIGHT MIN TEMP(1900-0800 LST):25 HOURLY INCREMENTAL PRECIPITATION VALUES (IN):.00 0.00 0.00 0.00 0.00 0.00 0.00 0.00 0.00 0.00 0.00 0.00 0.00 0.00 0.00 0.00 0.00 0.00 0.00 0.00 0.00 0.00 0.00 0.00
0207727976242172017010708537+48794-122537FM-15+0046KBLI V0203605N001552200059N0160935N5-00445-00725101635ADDAA101000095GA1005+999999999GD10991+9999999GF100991999999999999999999MA1101525100975MD1890059+9999REMMET09801/07/17 00:53:02 METAR KBLI 070853Z 36003KT 10SM CLR M04/M07 A2998 RMK AO2 SLP163 T10441072 58005
0187727976242172017010709537+48794-122537FM-15+0046KBLI V0209999C000052200059N0160935N5-00335-00675101655ADDAA101000095GA1005+999999999GD10991+9999999GF100991999999999999999999MA1101565101015REMMET09201/07/17 01:53:02 METAR KBLI 070953Z 00000KT 10SM CLR M03/M07 A2999 RMK AO2 SLP165 T10331067
0187727976242172017010710537+48794-122537FM-15+0046KBLI V0209999C000052200059N0160935N5-00565-00785101675ADDAA101000095GA1005+999999999GD10991+9999999GF100991999999999999999999MA1101565101015REMMET09201/07/17 02:53:02 METAR KBLI 071053Z 00000KT 10SM CLR M06/M08 A2999 RMK AO2 SLP167 T10561078
0245727976242172017010711537+48794-122537FM-15+0046KBLI V0209999C000052200059N0160935N5-00565-00785101605ADDAA101000095GA1005+999999999GD10991+9999999GF100991999999999999999999KA1060M-00111KA2060N-00611MA1101495100945MD1890039+9999REMMET11001/07/17 03:53:02 METAR KBLI 071153Z 00000KT 10SM CLR M06/M08 A2997 RMK AO2 SLP160 T10561078 11011 21061 58003
0187727976242172017010712537+48794-122537FM-15+0046KBLI V0209999C000052200059N0160935N5-00675-00785101555ADDAA101000095GA1005+999999999GD10991+9999999GF100991999999999999999999MA1101425100875REMMET09201/07/17 04:53:02 METAR KBLI 071253Z 00000KT 10SM CLR M07/M08 A2995 RMK AO2 SLP155 T10671078
0187727976242172017010713537+48794-122537FM-15+0046KBLI V0209999C000052200059N0160935N5-00725-00835101525ADDAA101000095GA1005+999999999GD10991+9999999GF100991999999999999999999MA1101425100875REMMET09201/07/17 05:53:02 METAR KBLI 071353Z 00000KT 10SM CLR M07/M08 A2995 RMK AO2 SLP152 T10721083
0233727976242172017010714537+48794-122537FM-15+0046KBLI V0209999C000052200059N0160935N5-00725-00835101485ADDAA101000095GA1005+999999999GD10991+9999999GF100991999999999999999999MA1101355100805MD1690149+9999WA1900099REMMET11501/07/17 06:53:02 METAR KBLI 071453Z 00000KT 10SM CLR M07/M08 A2993 RMK AO2 SLP148 I1000 I3000 T10721083 56014 (CC)
0192727976242172017010715537+48794-122537FM-15+0046KBLI V0209999C000052200059N0160935N5-00725-00895101405ADDAA101000095GA1005+999999999GD10991+9999999GF100991999999999999999999MA1101295100745REMMET09701/07/17 07:53:02 METAR KBLI 071553Z 00000KT 10SM CLR M07/M09 A2991 RMK AO2 SLP140 T10721089 (CC)
0192727976242172017010716537+48794-122537FM-15+0046KBLI V0209999C000052200059N0160935N5-00675-00835101375ADDAA101000095GA1005+999999999GD10991+9999999GF100991999999999999999999MA1101255100705REMMET09701/07/17 08:53:02 METAR KBLI 071653Z 00000KT 10SM CLR M07/M08 A2990 RMK AO2 SLP137 T10671083 (CC)
0265727976242172017010717537+48794-122537FM-15+0046KBLI V0200405N001552200059N0160935N5-00115-00445101345ADDAA101000095GA1005+999999999GD10991+9999999GF100991999999999999999999KA1060M-00111KA2060N-00781MA1101255100705MD1690129+9999WA1900099REMMET12101/07/17 09:53:02 METAR KBLI 071753Z 04003KT 10SM CLR M01/M04 A2990 RMK AO2 SLP134 I6000 T10111044 11011 21078 56012 (CC)
0236727976242172017010718537+48794-122537FM-15+0046KBLI V0200605N001552200059N0160935N5-00065-00395101265ADDAA101000095GA1045+030485999GD12991+0304859GE19AGL   +99999+99999GF104995999999030481999999MA1101155100605REMMET10001/07/17 10:53:02 METAR KBLI 071853Z 06003KT 10SM SCT100 M01/M04 A2987 RMK AO2 SLP126 T10061039 (CC)EQDD01      0ADE726
0216727976242172017010719537+48794-122537FM-15+0046KBLI V0209999C00005030485MN0160935N5+00175-00505101145ADDAA101000095GA1085+030485999GD14991+0304859GE19MSL   +99999+99999GF199999999999030481999999MA1101055100505REMMET09901/07/17 11:53:02 METAR KBLI 071953Z 00000KT 10SM OVC100 02/M05 A2984 RMK AO2 SLP114 T00171050 (CC)
0247727976242172017010720537+48794-122537FM-15+0046KBLI V0200305N00725027435MN0160935N5+00285-01065101035ADDAA101000095GA1085+027435999GD14991+0274359GE19MSL   +99999+99999GF199999999999027431999999MA1100955100405MD1890319+9999OC100985REMMET10801/07/17 12:53:02 METAR KBLI 072053Z 03014G19KT 10SM OVC090 03/M11 A2981 RMK AO2 SLP103 T00281106 58031 (CC)
0227727976242172017010721537+48794-122537FM-15+0046KBLI V0200305N00575028965MN0160935N5+00395-01175101005ADDAA101000095GA1085+028965999GD14991+0289659GE19MSL   +99999+99999GF199999999999028961999999MA1100915100365OC100885REMMET10201/07/17 13:53:02 METAR KBLI 072153Z 03011G17KT 10SM OVC095 04/M12 A2980 RMK AO2 SLP100 T00391117 (CC)
0227727976242172017010722537+48794-122537FM-15+0046KBLI V0200405N00575024385MN0160935N5+00395-01175100955ADDAA101000095GA1085+024385999GD14991+0243859GE19MSL   +99999+99999GF199999999999024381999999MA1100855100305OC100985REMMET10201/07/17 14:53:02 METAR KBLI 072253Z 04011G19KT 10SM OVC080 04/M12 A2978 RMK AO2 SLP095 T00391117 (CC)
0274727976242172017010723537+48794-122537FM-15+0046KBLI V0200205N00575022865MN0160935N5+00335-01175100925ADDAA101000095GA1085+022865999GD14991+0228659GE19MSL   +99999+99999GF199999999999022861999999KA1060M+00391KA2060N-00111MA1100815100265MD1690119+9999REMMET11701/07/17 15:53:02 METAR KBLI 072353Z 02011KT 10SM OVC075 03/M12 A2977 RMK AO2 SLP092 T00331117 10039 21011 56011 (JC)
0211727976242172017010800537+48794-122537FM-15+0046KBLI V0200405N00515021345MN0160935N5+00335-01115100975ADDAA101000095GA1085+021345999GD14991+0213459GE19MSL   +99999+99999GF199999999999021341999999MA1100885100335REMMET09401/07/17 16:53:01 METAR KBLI 080053Z 04010KT 10SM OVC070 03/M11 A2979 RMK AO2 SLP097 T00331111
0211727976242172017010801537+48794-122537FM-15+0046KBLI V0209999C00005021345MN0160935N5+00225-01005101115ADDAA101000095GA1085+021345999GD14991+0213459GE19MSL   +99999+99999GF199999999999021341999999MA1101025100475REMMET09401/07/17 17:53:01 METAR KBLI 080153Z 00000KT 10SM OVC070 02/M10 A2983 RMK AO2 SLP111 T00221100
0231727976242172017010802537+48794-122537FM-15+0046KBLI V0209999C00005025915MN0160935N5+00175-00725101235ADDAA101000095GA1085+025915999GD14991+0259159GE19MSL   +99999+99999GF199999999999025911999999MA1101125100575MD1390299+9999REMMET10001/07/17 18:53:02 METAR KBLI 080253Z 00000KT 10SM OVC085 02/M07 A2986 RMK AO2 SLP123 T00171072 53029
0211727976242172017010803537+48794-122537FM-15+0046KBLI V0209999C00005025915MN0160935N5+00115-00725101345ADDAA101000095GA1085+025915999GD14991+0259159GE19MSL   +99999+99999GF199999999999025911999999MA1101255100705REMMET09401/07/17 19:53:02 METAR KBLI 080353Z 00000KT 10SM OVC085 01/M07 A2990 RMK AO2 SLP134 T00111072
0287727976242172017010804537+48794-122537FM-15+0046KBLI V0200305N00265014945MN0160935N5+00065-00675101425ADDAA101000095GA1025+011895999GA2075+014945999GA3075+021345999GD11991+0118959GD23991+0149459GD33991+0213459GE19MSL   +99999+99999GF199999999999011891999999MA1101325100775REMMET10801/07/17 20:53:02 METAR KBLI 080453Z 03005KT 10SM FEW039 BKN049 BKN070 01/M07 A2992 RMK AO2 SLP142 T00061067
0245727976242172017010805537+48794-122537FM-15+0046KBLI V0202405N001552200059N0160935N5-00115-00615101545ADDAA101000095GA1005+999999999GD10991+9999999GF100991999999999999999999KA1060M+00331KA2060N-00171MA1101465100905MD1390329+9999REMMET11001/07/17 21:53:02 METAR KBLI 080553Z 24003KT 10SM CLR M01/M06 A2996 RMK AO2 SLP154 T10111061 10033 21017 53032
0212727976242172017010806537+48794-122537FM-15+0046KBLI V0209999C00005027435MN0160935N5-00175-00615101595ADDAA101000095GA1085+027435999GD14991+0274359GE19MSL   +99999+99999GF199999999999027431999999MA1101495100945REMMET09501/07/17 22:53:02 METAR KBLI 080653Z 00000KT 10SM OVC090 M02/M06 A2997 RMK AO2 SLP159 T10171061
0247727976242172017010807537+48794-122537FM-15+0046KBLI V0200105N00365021345MN0160935N5+00115-00725101585ADDAA101000095GA1085+021345999GD14991+0213459GE19MSL   +99999+99999GF199999999999021341999999KA1240M+00391KA2240N-00781MA1101495100945REMMET10401/07/17 23:53:02 METAR KBLI 080753Z 01007KT 10SM OVC070 01/M07 A2997 RMK AO2 SLP158 T00111072 400391078
0899727976242172017010807596+48794-122537SOD  +0046KBLI V020999999999999999999999999999+99999+99999999999ADDAA124000095AJ100009599999999AL12400095AN1024000095KA1240M+00395KA2240N-00775MG1100694100914OE11240102802099995OE22240076003099995OE33240017499999995REMSOD73924 HR PRECIPITATION (IN): 0.00 SNOW DEPTH (IN):0     24 HR SNOWFALL (IN):0.0  24 HR MAX TEMP (F): 3924 HR MIN TEMP (F): 18AVERAGE STATION PRESSURE:29.735 MINIMUM SEA LEVEL PRESSURE:29.80 TIME OF OCCURRENCE:1602 PEAK WIND SPEED (MPH): 23 PEAK WIND DIR (DEG): 20 PEAK WIND TIME (LST):      FASTEST 2MIN SPEED (MPH): 17FASTEST 2MIN DIR (DEG): 30 FASTEST 2MIN TIME (LST):     AVERAGE WIND SPEED (MPH): 3.9 24 HR AVG TEMP (F): 29DEPART FROM NORMAL:-10  HEATING DEGREE DAYS: 36 COOLING DEGREE DAYS:  0 LATEST DAY MAX TEMP (0700-1900 LST):39  LATEST NIGHT MIN TEMP(1900-0800 LST):18 HOURLY INCREMENTAL PRECIPITATION VALUES (IN):.00 0.00 0.00 0.00 0.00 0.00 0.00 0.00 0.00 0.00 0.00 0.00 0.00 0.00 0.00 0.00 0.00 0.00 0.00 0.00 0.00 0.00 0.00 0.00
0269727976242172017010808537+48794-122537FM-15+0046KBLI V0200205N00465021345MN0160935N5+00225-00895101575ADDAA101000095GA1025+014025999GA2085+021345999GD11991+0140259GD24991+0213459GE19MSL   +99999+99999GF199999999999014021999999MA1101495100945MD1090049+9999REMMET10701/08/17 00:53:02 METAR KBLI 080853Z 02009KT 10SM FEW046 OVC070 02/M09 A2997 RMK AO2 SLP157 T00221089 50004
0260727976242172017010809537+48794-122537FM-15+0046KBLI V0200205N00675019815MN0160935N5+00285-00945101545ADDAA101000095GA1075+019815999GA2085+024385999GD13991+0198159GD24991+0243859GE19MSL   +99999+99999GF199999999999019811999999MA1101465100905OC101035REMMET10401/08/17 01:53:02 METAR KBLI 080953Z 02013G20KT 10SM BKN065 OVC080 03/M09 A2996 RMK AO2 SLP154 T00281094
0260727976242172017010810537+48794-122537FM-15+0046KBLI V0200205N00625025915MN0160935N5+00285-00945101515ADDAA101000095GA1045+014025999GA2085+025915999GD12991+0140259GD24991+0259159GE19MSL   +99999+99999GF199999999999014021999999MA1101425100875OC100985REMMET10401/08/17 02:53:02 METAR KBLI 081053Z 02012G19KT 10SM SCT046 OVC085 03/M09 A2995 RMK AO2 SLP151 T00281094
0318727976242172017010811537+48794-122537FM-15+0046KBLI V0200205N00725022865MN0160935N5+00285-00895101445ADDAA101000095GA1045+013415999GA2085+022865999GD12991+0134159GD24991+0228659GE19MSL   +99999+99999GF199999999999013411999999KA1060M+00281KA2060N-00221MA1101355100805MD1890139+9999OC101035REMMET12201/08/17 03:53:02 METAR KBLI 081153Z 02014G20KT 10SM SCT044 OVC075 03/M09 A2993 RMK AO2 SLP144 T00281089 10028 21022 58013
0298727976242172017010812537+48794-122537FM-15+0046KBLI V0200205N00675036585MN0160935N5+00285-00895101305ADDAA101000095GA1025+012805999GA2045+022865999GA3075+036585999GD11991+0128059GD22991+0228659GD33991+0365859GE19MSL   +99999+99999GF199999999999012801999999MA1101225100675OC100985REMMET11101/08/17 04:53:02 METAR KBLI 081253Z 02013G19KT 10SM FEW042 SCT075 BKN120 03/M09 A2989 RMK AO2 SLP130 T00281089
0260727976242172017010813537+48794-122537FM-15+0046KBLI V0200305N00725013725MN0160935N5+00335-00835101175ADDAA101000095GA1075+013725999GA2085+033535999GD13991+0137259GD24991+0335359GE19MSL   +99999+99999GF199999999999013721999999MA1101085100535OC101085REMMET10401/08/17 05:53:02 METAR KBLI 081353Z 03014G21KT 10SM BKN045 OVC110 03/M08 A2985 RMK AO2 SLP117 T00331083
0323727976242172017010814537+48794-122537FM-15+0046KBLI V0200205N00825022865MN0160935N5+00395-00835101045ADDAA101000095GA1025+013115999GA2045+019815999GA3085+022865999GD11991+0131159GD22991+0198159GD34991+0228659GE19MSL   +99999+99999GF199999999999013111999999MA1100955100405MD1690409+9999OC101245REMMET12201/08/17 06:53:02 METAR KBLI 081453Z 02016G24KT 10SM FEW043 SCT065 OVC075 04/M08 A2981 RMK AO2 SLP104 T00391083 56040 (CC)
0265727976242172017010815537+48794-122537FM-15+0046KBLI V0200305N00775025915MN0160935N5+00395-00785100825ADDAA101000095GA1045+014945999GA2085+025915999GD12991+0149459GD24991+0259159GE19MSL   +99999+99999GF199999999999014941999999MA1100755100205OC101135REMMET10901/08/17 07:53:02 METAR KBLI 081553Z 03015G22KT 10SM SCT049 OVC085 04/M08 A2975 RMK AO2 SLP082 T00391078 (CC)
0259727976242172017010816537+48794-122537FM-15+0046KBLI V0200305N00825022865MN0160935N5+00395-00725100725ADDAA101000095GA1075+022865999GD13991+0228659GE19MSL   +99999+99999GF199999999999022861999999MA1100645100095OC101295OD149901331030REMMET12001/08/17 08:53:02 METAR KBLI 081653Z 03016G25KT 10SM BKN075 04/M07 A2972 RMK AO2 PK WND 03026/1626 SLP072 T00391072 (CC)
0336727976242172017010817537+48794-122537FM-15+0046KBLI V0200305N009352200059N0160935N5+00505-00725100585ADDAA101000095GA1045+027435999GD12991+0274359GE19AGL   +99999+99999GF104995999999027431999999KA1060M+00501KA2060N+00281MA1100515099965MD1690459+9999OC101395OD149901491020REMMET13801/08/17 09:53:02 METAR KBLI 081753Z 03018G27KT 10SM SCT090 05/M07 A2968 RMK AO2 PK WND 02029/1735 SLP058 T00501072 10050 20028 56045 (CC)EQDD01      0ADE726
0265727976242172017010818537+48794-122537FM-15+0046KBLI V0200305N00775022865MN0160935N5+00565-00675100465ADDAA101000095GA1075+022865999GA2085+027435999GD13991+0228659GD24991+0274359GE19MSL   +99999+99999GF199999999999022861999999MA1100375099835OC101035REMMET10901/08/17 10:53:02 METAR KBLI 081853Z 03015G20KT 10SM BKN075 OVC090 06/M07 A2964 RMK AO2 SLP046 T00561067 (CC)
0254727976242172017010819537+48794-122537FM-15+0046KBLI V0200605N00575021345MN0160935N5+00565-00615100335ADDAA101000095GA1075+021345999GA2085+025915999GD13991+0213459GD24991+0259159GE19MSL   +99999+99999GF199999999999021341999999MA1100245099695REMMET10601/08/17 11:53:02 METAR KBLI 081953Z 06011KT 10SM BKN070 OVC085 06/M06 A2960 RMK AO2 SLP033 T00561061 (CC)
0305727976242172017010820537+48794-122537FM-15+0046KBLI V0200405N00315018295MN0160935N5+00505-00395100185ADDAA101000025AA203000021AU110020015AW1615GA1085+018295999GD14991+0182959GE19MSL   +99999+99999GF199999999999018291999999MA1100105099565MD1890409+9999REMMET12701/08/17 12:53:02 METAR KBLI 082053Z 04006KT 10SM -RA OVC060 05/M04 A2956 RMK AO2 RAB28 SLP018 P0000 60000 T00501039 58040 (WR)EQDQ01  00008PRCP03
0243727976242172017010821537+48794-122537FM-15+0046KBLI V0200305N00515015245MN0160935N5+00335-00175099955ADDAA101000595AU110020015AW1615GA1085+015245999GD14991+0152459GE19MSL   +99999+99999GF199999999999015241999999MA1099865099325REMMET10901/08/17 13:53:02 METAR KBLI 082153Z 03010KT 10SM -RA OVC050 03/M02 A2949 RMK AO2 SLP995 P0002 T00331017 (WR)
0242727976242172017010822537+48794-122537FM-15+0046KBLI V0200305N00575012805MN0160935N5+00285+00005099825ADDAA101001395AU110020015AW1615GA1085+012805999GD14991+0128059GE19MSL   +99999+99999GF199999999999012801999999MA1099735099185REMMET10801/08/17 14:53:02 METAR KBLI 082253Z 03011KT 10SM -RA OVC042 03/00 A2945 RMK AO2 SLP982 P0005 T00280000 (WR)
0346727976242172017010823537+48794-122537FM-15+0046KBLI V0200205N00465012805MN0112655N5+00285+00065099775ADDAA101000895AA206002391AU110020015AW1615GA1085+012805999GD14991+0128059GE19MSL   +99999+99999GF199999999999012801999999KA1060M+00561KA2060N+00281MA1099705099155MD1690409+9999OC100775REMMET13401/08/17 15:53:02 METAR KBLI 082353Z 02009G15KT 7SM -RA OVC042 03/01 A2944 RMK AO2 SLP977 P0002 60009 T00280006 10056 20028 56040 (WR)EQDQ01  00228PRCP06
0248727976242172017010900537+48794-122537FM-15+0046KBLI V0200305N00315012195MN0160935N5+00285+00065099765ADDAA101000595AU110020015AW1615GA1085+012195999GD14991+0121959GE19MSL   +99999+99999GF199999999999012191999999MA1099665099125OC100775REMMET10601/08/17 16:53:01 METAR KBLI 090053Z 03006G15KT 10SM -RA OVC040 03/01 A2943 RMK AO2 SLP976 P0002 T00280006
0312727976242172017010901537+48794-122537FM-15+0046KBLI V0200205N00315009145MN0112655N5+00285+00115099785ADDAA101000595AU110020015AW1615GA1045+006405999GA2075+009145999GA3085+010365999GD12991+0064059GD23991+0091459GD34991+0103659GE19MSL   +99999+99999GF199999999999006401999999MA1099705099155REMMET11601/08/17 17:53:01 METAR KBLI 090153Z 02006KT 7SM -RA SCT021 BKN030 OVC034 03/01 A2944 RMK AO2 SLP978 P0002 T00280011
0306727976242172017010902347+48794-122537FM-16+0046KBLI V0200305N00315008235MN0160935N5+00225+00175999999ADDAA101000531AU110020015AW1615GA1025+004275999GA2075+008235999GA3085+010365999GD11991+0042759GD23991+0082359GD34991+0103659GE19MSL   +99999+99999GF199999999999004271999999MA1099705099155REMMET11001/08/17 18:34:01 SPECI KBLI 090234Z 03006KT 10SM -RA FEW014 BKN027 OVC034 02/02 A2944 RMK AO2 P0002 T00220017
0388727976242172017010902537+48794-122537FM-15+0046KBLI V0200405N00315007625MN0096565N5+00225+00175099785ADDAA101000595AA203001891AU110020015AU200001015AW1105AW2615GA1025+003665999GA2075+007625999GA3085+009755999GD11991+0036659GD23991+0076259GD34991+0097559GE19MSL   +99999+99999GF199999999999003661999999MA1099705099155MD1390019+9999REMMET13101/08/17 18:53:02 METAR KBLI 090253Z 04006KT 6SM -RA BR FEW012 BKN025 OVC032 02/02 A2944 RMK AO2 SLP978 P0003 60007 T00220017 53001EQDQ01  00178PRCP03
0268727976242172017010903227+48794-122537FM-16+0046KBLI V0200305N00465009145MN0160935N5+00225+00175999999ADDAA101000531AU110020015AW1615GA1025+006405999GA2085+009145999GD11991+0064059GD24991+0091459GE19MSL   +99999+99999GF199999999999006401999999MA1099705099155REMMET10301/08/17 19:22:02 SPECI KBLI 090322Z 03009KT 10SM -RA FEW021 OVC030 02/02 A2944 RMK AO2 P0002 T00220017
0237727976242172017010903537+48794-122537FM-15+0046KBLI V0200305N00365009145MN0160935N5+00225+00175099785ADDAA101001095AU110020015AW1615GA1085+009145999GD14991+0091459GE19MSL   +99999+99999GF199999999999009141999999MA1099705099155REMMET10301/08/17 19:53:02 METAR KBLI 090353Z 03007KT 10SM -RA OVC030 02/02 A2944 RMK AO2 SLP978 P0003 T00220017
0171727976242172017010904516+48794-122537FM-16+0046KBLI V0200105N00365008845MN0160935N5+00205+00105999999ADDAU110020015AW1615GA1085+008845999GD14991+0088459MA1099735099185REMMET09601/08/17 20:51:03 SPECI KBLI 090451Z 01007KT 10SM -RA OVC029 02/01 A2945 RMK AO2 P0001 FIBI (WR)
0222727976242172017010904537+48794-122537FM-15+0046KBLI V0200205N00365008845MN0160935N5+00175+00115099815ADDAA101000025GA1085+008845999GD14991+0088459GE19MSL   +99999+99999GF199999999999008841999999MA1099735099185REMMET10501/08/17 20:53:02 METAR KBLI 090453Z 02007KT 10SM OVC029 02/01 A2945 RMK AO2 RAE52 SLP981 P0001 T00170011
0285727976242172017010905537+48794-122537FM-15+0046KBLI V0203505N00315007925MN0160935N5+00175+00115099865ADDAA101000095AA206002891GA1085+007925999GD14991+0079259GE19MSL   +99999+99999GF199999999999007921999999KA1060M+00281KA2060N+00171MA1099765099225MD1390079+9999REMMET11701/08/17 21:53:02 METAR KBLI 090553Z 35006KT 10SM OVC026 02/01 A2946 RMK AO2 SLP986 60011 T00170011 10028 20017 53007
0225727976242172017010906537+48794-122537FM-15+0046KBLI V0203405N00215006715MN0160935N5+00115+00115099885ADDAA101000395GA1085+006715999GD14991+0067159GE19MSL   +99999+99999GF199999999999006711999999MA1099805099255REMMET10801/08/17 22:53:02 METAR KBLI 090653Z 34004KT 10SM OVC022 01/01 A2947 RMK AO2 RAB19E36 SLP988 P0001 T00110011
0269727976242172017010907537+48794-122537FM-15+0046KBLI V0203405N00315003965MN0160935N5+00115+00065099925ADDAA101000025GA1085+003965999GD14991+0039659GE19MSL   +99999+99999GF199999999999003961999999KA1240M+00561KA2240N+00111MA1099835099295REMMET12601/08/17 23:53:02 METAR KBLI 090753Z 34006KT 10SM OVC013 01/01 A2948 RMK AO2 RAB07E22UPB11E12 SLP992 P0000 T00110006 400560011
0973727976242172017010907596+48794-122537SOD  +0046KBLI V020999999999999999999999999999+99999+99999999999ADDAA124005395AJ100009599999999AL12400095AN1024000095AT1AU16RA  5AT2AU13BR  5AX1015245KA1240M+00565KA2240N+00115MG1099764099734OE11240152002099995OE22240111803099995OE33240053699999995REMSOD78024 HR PRECIPITATION (IN): 0.21 SNOW DEPTH (IN):0     24 HR SNOWFALL (IN):0.0  WEATHER(CODE):1  24 HR MAX TEMP (F): 4224 HR MIN TEMP (F): 34AVERAGE STATION PRESSURE:29.460 MINIMUM SEA LEVEL PRESSURE:29.45 TIME OF OCCURRENCE:1647 PEAK WIND SPEED (MPH): 34 PEAK WIND DIR (DEG): 20 PEAK WIND TIME (LST):      FASTEST 2MIN SPEED (MPH): 25FASTEST 2MIN DIR (DEG): 30 FASTEST 2MIN TIME (LST):     AVERAGE WIND SPEED (MPH):12.0 24 HR AVG TEMP (F): 38DEPART FROM NORMAL: -1  SKY COVER SR-SS (TENTHS): 1HEATING DEGREE DAYS: 27 COOLING DEGREE DAYS:  0 LATEST DAY MAX TEMP (0700-1900 LST):42  LATEST NIGHT MIN TEMP(1900-0800 LST):28 HOURLY INCREMENTAL PRECIPITATION VALUES (IN):.00 0.00 0.00 0.00 0.00 0.00 0.00 0.00 0.00 0.00 0.00 0.00 T    0.02 0.05 0.03 0.02 0.02 0.02 0.04 T    0.00 0.01 T
0228727976242172017010908217+48794-122537FM-16+0046KBLI V0203205N00215004575MN0160935N5+00115+00065999999ADDAA101000021GA1085+004575999GD14991+0045759GE19MSL   +99999+99999GF199999999999004571999999MA1099835099295REMMET11101/09/17 00:21:02 SPECI KBLI 090821Z 32004KT 10SM OVC015 01/01 A2948 RMK AO2 RAB0755E06UPB06E14 P0000 T00110006
0291727976242172017010908537+48794-122537FM-15+0046KBLI V0201505N00365005185MN0160935N5+00565+00445099935ADDAA101000025AA203000391GA1085+005185999GD14991+0051859GE19MSL   +99999+99999GF199999999999005181999999MA1099835099295MD1190079+9999REMMET13001/09/17 00:53:02 METAR KBLI 090853Z 15007KT 10SM OVC017 06/04 A2948 RMK AO2 RAB0755E06UPB06E14 SLP993 P0000 60001 T00560044 51007EQDQ01  00028PRCP03
0272727976242172017010909537+48794-122537FM-15+0046KBLI V0201605N00625005185MN0080475N5+00675+00445099885ADDAA101001095AU120020015AU200001015AW1105AW2625GA1085+005185999GD14991+0051859GE19MSL   +99999+99999GF199999999999005181999999MA1099805099255OC101245REMMET11301/09/17 01:53:02 METAR KBLI 090953Z 16012G24KT 5SM RA BR OVC017 07/04 A2947 RMK AO2 RAB09 SLP988 P0003 T00670044
0375727976242172017010910537+48794-122537FM-15+0046KBLI V0201605N00775005185MN0064375N5+00615+00445099935ADDAA101003895AU110020015AU200001015AW1105AW2615GA1075+005185999GA2075+006715999GA3085+008535999GD13991+0051859GD23991+0067159GD34991+0085359GE19MSL   +99999+99999GF199999999999005181999999MA1099835099295OC101345OD149901641150REMMET14001/09/17 02:53:02 METAR KBLI 091053Z 16015G26KT 4SM -RA BR BKN017 BKN022 OVC028 06/04 A2948 RMK AO2 PK WND 15032/1015 SLP993 P0015 T00610044
0425727976242172017010911537+48794-122537FM-15+0046KBLI V0201905V00415005185MN0080475N5+00395+00335100165ADDAA101003395AA206008191AA324013291AU120020015AU200001015AW1105AW2625GA1085+005185999GD14991+0051859GE19MSL   +99999+99999GF199999999999005181999999KA1060M+00671KA2060N+00111MA1100075099525MD1390239+9999OC100885OD149901441170REMMET15501/09/17 03:53:02 METAR KBLI 091153Z 19008G17KT 5SM RA BR OVC017 04/03 A2955 RMK AO2 PK WND 17028/1057 SLP016 P0013 60032 70052 T00390033 10067 20011 53023EQDQ01  00818PRCP06Q02  01328PRCP24
0291727976242172017010912147+48794-122537FM-16+0046KBLI V0201705N00265012505MN0160935N5+00395+00285999999ADDAA101000231GA1045+005795999GA2075+012505999GA3085+019815999GD12991+0057959GD23991+0125059GD34991+0198159GE19MSL   +99999+99999GF199999999999005791999999MA1100075099525REMMET11201/09/17 04:14:02 SPECI KBLI 091214Z 17005KT 10SM SCT019 BKN041 OVC065 04/03 A2955 RMK AO2 RAE12 P0001 T00390028
0298727976242172017010912537+48794-122537FM-15+0046KBLI V0201705N00465030485MN0160935N5+00445+00285100115ADDAA101000025GA1025+007015999GA2025+012805999GA3075+030485999GD11991+0070159GD21991+0128059GD33991+0304859GE19MSL   +99999+99999GF199999999999007011999999MA1100035099495REMMET11901/09/17 04:53:02 METAR KBLI 091253Z 17009KT 10SM FEW023 FEW042 BKN100 04/03 A2954 RMK AO2 RAE12 SLP011 P0001 T00440028
0268727976242172017010913287+48794-122537FM-16+0046KBLI V0201605N00515008535MN0160935N5+00445+00225999999ADDGA1045+006715999GA2075+008535999GA3075+021345999GD12991+0067159GD23991+0085359GD33991+0213459GE19MSL   +99999+99999GF199999999999006711999999MA1100075099525REMMET10001/09/17 05:28:02 SPECI KBLI 091328Z 16010KT 10SM SCT022 BKN028 BKN070 04/02 A2955 RMK AO2 T00440022
0249727976242172017010913407+48794-122537FM-16+0046KBLI V0201605N004652200059N0160935N5+00505+00225999999ADDGA1025+006715999GA2045+021345999GD11991+0067159GD22991+0213459GE19AGL   +99999+99999GF104995999999006711999999MA1100075099525REMMET09301/09/17 05:40:02 SPECI KBLI 091340Z 16009KT 10SM FEW022 SCT070 05/02 A2955 RMK AO2 T00500022EQDD01      0ADE726
0267727976242172017010913537+48794-122537FM-15+0046KBLI V0201605N006252200059N0160935N5+00505+00225100145ADDAA101000095GA1025+007925999GA2045+027435999GD11991+0079259GD22991+0274359GE19AGL   +99999+99999GF104995999999007921999999MA1100075099525REMMET10001/09/17 05:53:02 METAR KBLI 091353Z 16012KT 10SM FEW026 SCT090 05/02 A2955 RMK AO2 SLP014 T00500022EQDD01      0ADE726
0328727976242172017010914537+48794-122537FM-15+0046KBLI V0201805N00265024385MN0160935N5+00505+00175100265ADDAA101000095AA203000391GA1025+007925999GA2045+011585999GA3075+024385999GD11991+0079259GD22991+0115859GD33991+0243859GE19MSL   +99999+99999GF199999999999007921999999MA1100175099625MD1390109+9999REMMET12401/09/17 06:53:02 METAR KBLI 091453Z 18005KT 10SM FEW026 SCT038 BKN080 05/02 A2958 RMK AO2 SLP026 60001 T00500017 53010 (MN)
0234727976242172017010915537+48794-122537FM-15+0046KBLI V0201705N003152200059N0160935N5+00395+00225100255ADDAA101000095GA1025+007325999GD11991+0073259GE19AGL   +99999+99999GF102995999999007321999999MA1100175099625REMMET09801/09/17 07:53:02 METAR KBLI 091553Z 17006KT 10SM FEW024 04/02 A2958 RMK AO2 SLP025 T00390022 (MN)EQDD01      0ADE726
0253727976242172017010916537+48794-122537FM-15+0046KBLI V0201605N00265021345MN0160935N5+00285+00175100365ADDAA101000095GA1045+016765999GA2075+021345999GD12991+0167659GD23991+0213459GE19MSL   +99999+99999GF199999999999016761999999MA1100275099725REMMET10501/09/17 08:53:02 METAR KBLI 091653Z 16005KT 10SM SCT055 BKN070 03/02 A2961 RMK AO2 SLP036 T00280017 (MN)
0309727976242172017010917537+48794-122537FM-15+0046KBLI V0201505N001552200059N0160935N5+00335+00225100415ADDAA101000095AA206000391GA1025+030485999GD11991+0304859GE19AGL   +99999+99999GF102995999999030481999999KA1060M+00561KA2060N+00221MA1100305099765MD1390159+9999REMMET12201/09/17 09:53:02 METAR KBLI 091753Z 15003KT 10SM FEW100 03/02 A2962 RMK AO2 SLP041 60001 T00330022 10056 20022 53015 (MN)EQDD01      0ADE726
0254727976242172017010917557+48794-122537FM-16+0046KBLI V0201505N002152200059N0160935N5+00395+00225999999ADDGA1025+003665999GA2045+016765999GD11991+0036659GD22991+0167659GE19AGL   +99999+99999GF104995999999003661999999MA1100305099765REMMET09801/09/17 09:55:02 SPECI KBLI 091755Z 15004KT 10SM FEW012 SCT055 04/02 A2962 RMK AO2 T00390022 (MN)EQDD01      0ADE726
0272727976242172017010918537+48794-122537FM-15+0046KBLI V0201605N003152200059N0160935N5+00505+00225100415ADDAA101000095GA1025+003665999GA2045+016765999GD11991+0036659GD22991+0167659GE19AGL   +99999+99999GF104995999999003661999999MA1100305099765REMMET10501/09/17 10:53:02 METAR KBLI 091853Z 16006KT 10SM FEW012 SCT055 05/02 A2962 RMK AO2 SLP041 T00500022 (MN)EQDD01      0ADE726
0190727976242172017010919537+48794-122537FM-15+0046KBLI V0201605N004152200059N0160935N5+00615+00225100385ADDAA101000095GA1005+999999999GD10991+9999999GF100991999999999999999999MA1100305099765REMMET09501/09/17 11:53:02 METAR KBLI 091953Z 16008KT 10SM CLR 06/02 A2962 RMK AO2 SLP038 T00610022 (MN)
0210727976242172017010920537+48794-122537FM-15+0046KBLI V0201505N004652200059N0160935N5+00615+00225100395ADDAA101000095GA1005+999999999GD10991+9999999GF100991999999999999999999MA1100305099765MD1590019+9999REMMET10101/09/17 12:53:02 METAR KBLI 092053Z 15009KT 10SM CLR 06/02 A2962 RMK AO2 SLP039 T00610022 55001 (MN)
0245727976242172017010921537+48794-122537FM-15+0046KBLI V0201705N005752200059N0160935N5+00615+00225100435ADDAA101000095GA1045+007625999GD12991+0076259GE19AGL   +99999+99999GF104995999999007621999999MA1100375099835OC100935REMMET10101/09/17 13:53:02 METAR KBLI 092153Z 17011G18KT 10SM SCT025 06/02 A2964 RMK AO2 SLP043 T00610022 (MN)EQDD01      0ADE726
0234727976242172017010922537+48794-122537FM-15+0046KBLI V0201705N004152200059N0160935N5+00565+00285100505ADDAA101000095GA1045+008235999GD12991+0082359GE19AGL   +99999+99999GF104995999999008231999999MA1100415099865REMMET09801/09/17 14:53:02 METAR KBLI 092253Z 17008KT 10SM SCT027 06/03 A2965 RMK AO2 SLP050 T00560028 (MN)EQDD01      0ADE726
0197727976242172017010923007+48794-122537FM-16+0046KBLI V0201605N00365008535MN0160935N5+00565+00285999999ADDGA1075+008535999GD13991+0085359GE19MSL   +99999+99999GF199999999999008531999999MA1100445099895REMMET09101/09/17 15:00:02 SPECI KBLI 092300Z 16007KT 10SM BKN028 06/03 A2966 RMK AO2 T00560028 (MN)
0216727976242172017010923077+48794-122537FM-16+0046KBLI V0201605N004152200059N0160935N5+00565+00285999999ADDGA1045+008535999GD12991+0085359GE19AGL   +99999+99999GF104995999999008531999999MA1100445099895REMMET09101/09/17 15:07:02 SPECI KBLI 092307Z 16008KT 10SM SCT028 06/03 A2966 RMK AO2 T00560028 (MN)EQDD01      0ADE726
